:1000000000000120B5020000DD020000DF02000058
:10001000E1020000E3020000E50200000000000031
:10002000000000000000000000000000E7020000E7
:10003000E902000000000000EB020000ED020000F9
:100040009D220000EF020000AD2200000D23000001
:1000500065230000EF020000AD1C0000EF0200006D
:10006000EF020000EF020000EF020000EF020000CC
:10007000EF020000EF020000EF020000EF020000BC
:10008000EF020000C1070000EF020000EF020000D5
:1000900061080000EF020000EF020000EF02000024
:1000A000EF020000EF020000EF020000EF0200008C
:1000B000EF020000EF02000000000000000000005E
:1000C000EF020000EF020000EF020000EF0200006C
:1000D000EF020000EF020000EF020000000000004D
:1000E0000000000000000000000000000000000010
:1000F0000000000000000000000000000000000000
:1001000000000000000000000000000000000000EF
:1001100000000000000000000000000000000000DF
:1001200000000000000000000000000000000000CF
:1001300000000000000000000000000000000000BF
:1001400000000000000000000000000000000000AF
:10015000000000000000000000000000000000009F
:10016000000000000000000000000000000000008F
:10017000000000000000000000000000000000007F
:10018000000000000000000000000000000000006F
:10019000000000000000000000000000000000005F
:1001A000000000000000000000000000000000004F
:1001B000000000000000000000000000000000003F
:1001C000000000000000000000000000000000002F
:1001D000000000000000000000000000000000001F
:1001E000000000000000000000000000000000000F
:1001F00000000000000000000000000000000000FF
:1002000010B5054C237833B9044B13B10448AFF350
:1002100000800123237010BDC800002000000000F2
:100220005C3F000008B5034B1BB103490348AFF323
:10023000008008BD00000000CC0000205C3F0000F2
:10024000154B002B08BF134B9D46A3F5803A0021A8
:100250008B460F461348144A121A03F01EFC0F4B2C
:10026000002B00D098470E4B002B00D09847002061
:10027000002104000D000D48002802D00C48AFF307
:10028000008003F0DBFB2000290003F09FF803F05F
:10029000C1FB00BF000008000000012000000000BA
:1002A00000000000C8000020180900200000000025
:1002B000000000000649074A074B9B1A03DD043B78
:1002C000C858D050FBDC03F0C5F9FFF7B9FF0000B8
:1002D0000840000000000020C8000020FEE7FEE704
:1002E000FEE7FEE7FEE7FEE7FEE7FEE7FEE7FEE7E6
:1002F000F0B5314D85B005F5836000F097FD05F24E
:10030000144000F093FDD5E9012702EA0704E31C3D
:1003100005EB830319788E0701F004000ED0C8B1F5
:1003200001F00301012935D0022902F10200EED1CA
:100330005A8800EB921202EA0704E8E7561C0028EC
:10034000EED159881A8806EB911606EB921202EA52
:100350000704DCE705EB8404531CE16801913B4092
:1003600005EB830301F003010129DE6802F10204B9
:100370001AD0022916D1BDF806309B090333360C7A
:1003800004EB93040D4800F05DFD00B16C60304655
:1003900005B0F0BD1B880232C3F383131A4402EA8E
:1003A0000704B4E70646EDE7BDF80430C3F3831352
:1003B000360C1C44E6E700BFB4010020C80500204D
:1003C0002DE9F843DFF8D890074600208846D9F891
:1003D000084000F0F7FCD9E90132D9F80060134475
:1003E00001339B1B012B56D809F21C4501212846DD
:1003F00000F004FDFFF77CFF0146284600F0FEFCFC
:10040000D9E90132D9F80010134401335B1A012BEA
:10041000ECD90A40033205230231002049F822308A
:10042000C9F8001000F0D6FC00211C4800F0DCFCEC
:1004300080F31000731C234009EB83030004344055
:10044000033440EA1740D86019F8243067F3C50335
:1004500009F8243039F824306FF3891329F824304F
:1004600059F8242068F39F221346012161F3010308
:100470006FF3820349F8242009F8243099F82034D6
:100480001BB906E000F00EF818B1D9E900329A4223
:10049000F8D1BDE8F8833146BBE700BFD0050020A6
:1004A000B40100202DE9F0478D4D002384B0C5F83C
:1004B0001834BFF34F8FD5E901462B680CE037B3F2
:1004C00001F0030101294ED0022903D152880234E0
:1004D00004EB9214A34215D904EA0600C21C05EBF2
:1004E0008202117811F0030F01F00407E7D1002F09
:1004F000E6D151881288013404EB911404EB921474
:10050000A342E9D800206B6004B0BDE8F08705EB9A
:100510008000631CC2680192334005EB830302F044
:100520000302DB680293022A04F102087ED0012A4A
:100530001FD0D5F8104434B1236820469B689847F3
:100540006468002CF8D1674B67491888000440F0B4
:100550000200FFF735FFD5E90030C01A18BF0120AF
:1005600004B0BDE8F08712880234C2F38312144449
:10057000B0E7BDF804205D48C2F38313062B28BF03
:10058000062363F3891202339900ADF8042001F0C9
:1005900019F981460028CCD001F056F93B460822D3
:1005A00001A9484601F076F9BDF8043013F4707FD4
:1005B00000F093806FF0010AAAEB040A082406EA0F
:1005C000080103312346042205EB8101484601F06E
:1005D00061F9BDF8043008F101070AEB0702C3F323
:1005E00083139342B84604F10404E8D8D5F81834CC
:1005F000002B67D1D5F8104454B1637A20464946A0
:10060000002B5BD023681B6898476468002CF4D1EA
:10061000484601F01DF9002000F0D4FBD5F818344D
:1006200003B96F60002000F0D5FB94E7BDF80630F9
:100630002E489C09502CA24628BF4FF0500A6AF35E
:100640008F130AF10801ADF8063001F0BBF88146BE
:1006500000283FF46EAF01F0F7F83B4626EA0807A2
:100660000137082201A94846BF0001F013F9BA4535
:1006700019D95FFA8AF34FB306EA0801DB1B03318D
:1006800005EB8101DEB23A460823484601F002F943
:10069000324607F108031649484601F0FBF80334D7
:1006A00008EB9407A2E706EA0801033105EB810194
:1006B00052460823484601F0EDF8F0E76468002C44
:1006C0009BD1A5E7484601F0C3F844E7524608230A
:1006D0000749484601F0DEF8E1E7474686E700BFF4
:1006E000B4010020B4000020D83D0000B83F000055
:1006F000C0010020044BD3E900239A4201D0FFF748
:10070000D1BE0020704700BFB401002038B5084BAF
:10071000D3F81044012583F820543CB12368657256
:1007200020465B6898476468002CF7D138BD00BF4D
:10073000B401002000B585B000230390194601AA3A
:1007400044F20100CDE9013300F004F805B05DF892
:1007500004FB00BF10B572B6FFF7D8FFFFF7CAFF62
:100760000028FBD1104C11492088000440F0010002
:10077000FFF726FE0E4B1B68DB0700D500BE208866
:100780000C49000440F00200FFF71AFEBFF34F8F40
:1007900009490A4BCA6802F4E0621343CB60BFF315
:1007A0004F8F00BFFDE700BFB4000020043E0000F3
:1007B000F0ED00E0103E000000ED00E00400FA055E
:1007C000F8B5204A204B0024C2F84041C2F8444109
:1007D000C2F84841C2F84C41C2F80041C2F8044195
:1007E0001B6833B31949D2F804550A68AD1A1A6860
:1007F00025F07F45AA4227460DD8197CDE69AD1A3F
:10080000144419B11F74D3E9052090471EB1334633
:100810001A68AA42F1D90E490E4A0B7812789A4208
:1008200008D00D490D4A41F823404FF48013C2F817
:100830000031F8BD531CDBB2022B08BF00230B7044
:10084000EFE700BF00100140F8060020F40600208A
:10085000F1060020F0060020E806002000E100E09C
:100860002DE9F04F8C4A8D4913780978DFF85082D2
:10087000994285B0D8F800A000F07B810133DBB24B
:10088000022B08BF002386481370864A076852F877
:1008900023107B1823F07F43002403605346264631
:1008A0002046A446ABB11A688A4200F26581DC6832
:1008B000C3F800C0891A1044DA6934B13D1825F034
:1008C0007F45C3E90154DE611E4613460124002B17
:1008D000E9D1002C40F07C8101230093724B734FCF
:1008E000DFF8E09143F00103019355464FF0000B10
:1008F00046B3D6E901C13446F669694B6C481A68BB
:10090000ACEB020323F07F43834248D80B442360BF
:1009100000220121C4E90122E2612174002D5DD091
:100920002A689A424DD2284603E00A689A424FD27A
:100930000846C1699B1A0029F7D12360E161C461AF
:10094000002ED6D178783978884264D00B4603EBF4
:1009500043034C1CBA7807EBC303E1B28A421A790D
:10096000397004BF00213970022A9C6844D0032AE0
:1009700038D0012AE8D1227C002AE5D1D3F80CC076
:10098000C4F804C01969A1605869E06099F80000D2
:100990009B69A3610028B0D062609446ADE7A2EBEA
:1009A0000C0222F07F428A4202D28B1A2360AFE708
:1009B00000230122C4E90033A360E36122746DB116
:1009C0002A68C8F80040D31A2B60E56125468FE7F6
:1009D000D21A0A602360E161C461B1E7C8F800403F
:1009E000254685E7002DAFD000232B74ED69002D3F
:1009F000FBD1C8F80050A5E74DB1AC422B4603D15E
:100A0000E4E094422FD01346DA69002AF9D100239A
:100A1000237488429AD1BBF1000F01D1554553D0C0
:100A2000002D56D1234E244A1F4C4FF480334FF4EF
:100A300000310127C2F880103C43C6F848334FF418
:100A40003C60C6F808337760A047154BB7604FF499
:100A50003C601D60A047194B1D70002389F80030D1
:100A600005B0BDE8F08FA34200F09180E0692168F5
:100A7000D861002800F086802A4603680B44036092
:100A8000AA424FF000033978787823741CBF1546CA
:100A90004FF0010BBDE700BFF0060020F10600207B
:100AA000F4060020E8060020203E0000D8050020C3
:100AB000FEFF7F000010014000E100E0E50600209D
:100AC000F8060020E4060020009B002BC5D0002D76
:100AD000A8D0434B434A1C68D2F80465424FD5F86E
:100AE00000A03978331B23F07F43DD1CB9B93F499F
:100AF0003F4B4FF48030C2F844034FF00108C2F876
:100B000004034FF40030C1F8800143F00103086092
:100B1000C2F800804FF43C60984787F80080AA45EF
:100B20002CBF04EB0A0363192E4923F07F43C1F85D
:100B30004035D1F80425921B9B1B22F07F4223F005
:100B40007F4303329A4288D9294BD1F80425C1F852
:100B5000402543F001034FF43C609847234B4FF48A
:100B60000032C3F80021002389F8003005B0BDE849
:100B7000F08F00260096B1E674BB521A1A6001236A
:100B80000093ABE6002339787878237441E719465F
:100B9000EA69C8F8002092B9CDE90231114BDFF8BB
:100BA00040C001209860019B89F80000CCF800202B
:100BB0004FF43C609847DDE90231D8F80020C8695D
:100BC0000968D86100287FF458AF59E72946DFE764
:100BD000C8F800309A467FE6C8F800309A46CCE75D
:100BE000F406002000100140E506002000E100E0CE
:100BF000203E00002DE9F8431F4D204E204FDFF826
:100C000098804FF480334FF400324FF001090024F4
:100C1000C6F8802047EA0907C5F848334FF43C601E
:100C2000C5F80833C5F80490B847C5F808904FF4E4
:100C30003C60C8F80040B847124A134B13491C6087
:100C40001470134B134A0C700B2114701C80997094
:100C50004FF48012E023C6F8802186F81433326006
:100C6000C5F8084586F81133D5F80435C8F80030C2
:100C70002046BDE8F88300BF0010014000E100E01D
:100C8000203E0000E5060020F8060020F0060020C7
:100C9000D8050020F1060020F4060020074B9B78C1
:100CA0004BB132B128B10368187C20B959745A612C
:100CB0007047072070470820704700BFD805002004
:100CC0002DE9F843224CA378002B35D0002833D0EF
:100CD000042934D943697BB3437C0646012B4FF08A
:100CE00000000CBF884680461746894600F06AF827
:100CF0006378A17822785D1CEDB2A94208BF002577
:100D0000AA421FD003EB430304EBC3030121114AA2
:100D10009E601971D2F80425DA600020C3E90498B6
:100D20009F61657000F056F80B4B4FF48012C3F8CA
:100D300000210020BDE8F8830820BDE8F8830720E3
:100D4000BDE8F883002000F045F80420F2E700BF7A
:100D5000D80500200010014000E100E070B5174DFB
:100D6000AB7823B318B343690BB30024047406466D
:100D7000204600F027F86A78A8782978531CDBB25F
:100D8000984208BF2346994213D002EB420205EB7A
:100D9000C20202219660204611716B7000F01AF8B1
:100DA000074B4FF48012C3F80021204670BD082085
:100DB00070BD204600F00EF8042070BDD80500205C
:100DC00000E100E072B6024A136801331360704715
:100DD000FC060020034A1368013B136003B962B6A6
:100DE000704700BFFC06002050E8002F0B4640E88B
:100DF000003C9CF0000FF7D11046704750E8003FD0
:100E000003EB010240E8002C9CF0000FF6D11046E5
:100E1000704700BF50E8003FA3EB010240E8002C00
:100E20009CF0000FF6D11046704700BF012350E838
:100E3000002F42EA030C40E800C191F0000FF6D108
:100E400060467047002350E800CF0CEA030240E8F8
:100E5000002191F0000FF6D1604670472DE9F04770
:100E6000154612B92846BDE8F0870446002088469A
:100E7000FFF7A8FF237C002B63D1D4F808904D45E1
:100E800028BF4D460020FFF79DFF23681F685A6862
:100E9000974231D9A36801331344DF1B0020FFF7C9
:100EA00099FF2368A6685968E26858686368013644
:100EB000761AB54202FB003025D802FB05F2414606
:100EC00002F0E0FD2268A16853682B448B4296BF74
:100ED000536800235B19536022681368506883428B
:100EE0000CD8C31A9168994238BF93600020FFF76D
:100EF00071FF2846BDE8F087D71BCFE7A168013115
:100F00000144CB1AEEE702FB06FA5246414602F0D4
:100F1000B9FDE2686068AE1B08EB0A0102FB06F24D
:100F200002F0B0FDA9EB07072368BD425E60D3D98C
:100F30002268A16853688B4234BF013300231360D9
:100F4000CAE70020A768FFF73DFF226813685168D1
:100F50008B420DD9A268561C0E44F61A0020FFF7EA
:100F600039FFBB1B9D42D4F8089028BF1D4689E776
:100F7000CE1AF3E72DE9F041144612B92046BDE838
:100F8000F081054600208846FFF71CFF2A68136899
:100F90005068834225D9A96801310144CB1A1768EA
:100FA00056686968EA689C4228BF1C46B74284BFFD
:100FB000AE680136F61BB44202FB071113D802FBE0
:100FC00004F2404602F05EFDA9682A6827448F4279
:100FD00088BF002717600020FFF7FCFE2046BDE811
:100FE000F081C31ADBE706FB02F73A46404602F0FF
:100FF00049FDEA686968A61B08EB070002FB06F2D8
:1010000002F040FD2B681E60E5E700BF10B5044606
:101010000020FFF7D7FE20680C22002102F03DFDE2
:101020000020BDE81040FFF7D5BE00BF0368186878
:101030005B68C01AB0FA80F0400970470123037062
:10104000704700BF70B50578012D0C461DD00AD33E
:10105000022D19D14B691B68DB68ABB129462046CC
:10106000BDE8704018474B691B685968DA684E68DC
:101070009D6812B100212046904730462A7A29689F
:10108000FFF778FF00282AD170BD4B69027A1B68F0
:1010900041685B6806461868FFF7E0FE337A8342D2
:1010A00063691B6813D8DA6822B129462046904745
:1010B00063691B68154922789B68885C59685A7A6D
:1010C000C8B904F10C00BDE8704001F0B9BDDB689F
:1010D000002BD9D020460321BDE8704018470B4AA9
:1010E00023782968D35CC2B253B904F10C00BDE87F
:1010F000704001F033BD201DBDE8704002F0BAB869
:10110000201DBDE8704002F057B800BF1009002054
:1011100070B543691B6888B01BB18525284608B0A7
:1011200070BD164604462022684602F0ABFC3378B8
:10113000314A0494A3F10205002BB5FA85F54FEA74
:101140005515694608BF002220468DF81D5000F055
:10115000E5FC05460028E1D163691E6063691A68F1
:1011600052684AB15068FFF751FF63691B685B68BA
:101170001868FFF74BFF636900229A60BFF35F8F27
:1011800063695A60BFF35F8F009B6269032101337B
:10119000117304D16269137B23F002031373019A64
:1011A0006369013215D01B68144E1A782178022A1F
:1011B000705C04D0B8B1002AB0D02278B05C9B68D3
:1011C00059685A7A50B904F10C0001F039FD05460E
:1011D000A4E71A7B22F001021A739FE7201D02F098
:1011E00049F805469AE704F10C0001F0D7FD636960
:1011F0001B681A78DFE700BF4510000010090020C7
:1012000038B543691A6872B304460121181DFFF707
:10121000EBFD0546BFF35F8F18BB60690121083005
:10122000FFF7E2FDBFF35F8FF8B9154A2378D35C6F
:101230000BBB04F10C0001F02BFC606903685B68D8
:101240004BB15868FFF7E2FE63691B685B6818687A
:10125000FFF7DCFE60691022002102F01EFC002076
:1012600038BD112038BD802038BD6369BFF35F8F62
:101270005D60112038BD201D01F036FFDDE700BFA5
:10128000100900202DE9F04F044640690E46016820
:1012900087B0002900F0B7809A46037B9D0740F194
:1012A00081801746002A79D006F06043B3F1005FD1
:1012B00003D00B78022B00F0B68001210430FFF739
:1012C00093FD0546BFF35F8F00286FD1109B8DF80B
:1012D00014005A1C13D01A464FF4FA704FF400430E
:1012E0000021E3FB02014FF47A72002302F0E8FBD5
:1012F0000428804600F2998001238DF81430221DC5
:10130000CDE9012704F10C03DFF85481CDF80CA0DE
:101310003D46A2469B46DAF814201268117800294F
:1013200046D0D2E901174C682A4620463146FFF7DD
:1013300095FD9AF8002018F802208146002A47D12E
:10134000584601F071FC002847D0B5EB09054E4422
:101350000BD0DAF814201268117811B1126902B1B9
:1013600090479DF81420002AD5D05446DDE9027A32
:10137000BAF1000F02D07F1BCAF800709DF814303C
:1013800013B9109B013347D16369BFF35F8F00220C
:101390005A601DB19DF81430002B42D1002007B0D7
:1013A000BDE8F08F082007B0BDE8F08F1120F6E708
:1013B0009AF8002018F80220FF2DA94628BF4FF008
:1013C000FF09D2B94A463146584601F0C7FBBCE78F
:1013D000019801F041FF0028B7D13A7A39682046D8
:1013E000FFF7C8FD9AF80020396818F8022072B992
:1013F000C2B2584601F0B2FBA7E74A46314601980F
:1014000001F0DAFEA1E7802007B0BDE8F08FC2B29C
:10141000019801F0D1FE98E7A3691868FFF79EFCD8
:10142000B2E70D20BBE71020B9E7D4F818900B4ABB
:1014300029464846FFF732FC28B16369BFF35F8F46
:1014400000225A60ABE74146D9F8000005AAFFF731
:1014500037FC00283FF453AFEFE700BF3D1000001A
:10146000100900202DE9F04F054640698B460168C0
:1014700087B0CDE90223002900F08380037BD907E0
:1014800079D51AB9002007B0BDE8F08F01210830E6
:10149000FFF7AAFC0446BFF35F8F00286FD1109BB3
:1014A0008DF814005A1C13D01A464FF4FA704FF4FA
:1014B00000430021E3FB02014FF47A72002302F0A3
:1014C000FFFA0428064600F2938001238DF81430B9
:1014D0006B69029A1B680192524F1A7805F10C0849
:1014E000EAB15B68019A18685946FFF743FD8246E6
:1014F000019BB3EB0A03D344019358D06B699DF869
:1015000014101B681A78002947D142B119690029C3
:10151000E6D088476B691B681A78002AE1D1019BE5
:10152000FF2B28BFFF239A461E465C4605F104099F
:1015300011E0404601F02AFC0346012221464046C4
:10154000B3B1002ED4D02B78FB5CF3B901F078FB5B
:1015500070B90134013E2B78FB5C4846002BE8D083
:1015600001F01EFF0346012221464046002BE8D130
:10157000AAEB060ABCE7082007B0BDE8F08F1120EF
:1015800081E7802007B0BDE8F08F01222146484660
:1015900001F070FE0028DCD0EAE742B1214A2B7846
:1015A000D35C002B3AD105F10C0001F01DFC039A2D
:1015B0001AB1DDE901135B1A13609DF8143013B9F9
:1015C000109B01330FD16B69BFF35F8F00229A60CC
:1015D000019B002B3FF456AF9DF81430002B3FF4D5
:1015E00051AF0D204FE7EB691868FFF7B7FBEAE74B
:1015F000EF690D4A21463846FFF750FB28B16B6969
:10160000BFF35F8F00229A603DE73146386805AA34
:10161000FFF756FB00283FF45BAFF0E7281D01F011
:10162000C7FEC4E7100900203D10000043691A6896
:10163000002A68D02DE9F0431C7BA40783B05CD559
:1016400012781AB9002003B0BDE8F0830E460446B4
:101650000121181DFFF7C8FB0546BFF35F8F002867
:101660004FD1731C8DF8040011D04FF400434FF498
:10167000FA700021E3FB06014FF47A72002302F0B6
:101680001FFA042807464AD801238DF80430DFF8F2
:10169000C08004F10C09271D0AE063691B681A78F1
:1016A00012B11B6903B198479DF80430002B2FD16C
:1016B00063691B685B685868FFF7B8FC054600283B
:1016C000EBD0237818F803303846F3B9484601F0D8
:1016D000ABFA0028E1D19DF804300BB9013619D1DD
:1016E0006369BFF35F8F00225A60002DAAD19DF875
:1016F0000430002BA6D00D20A5E7082003B0BDE8DC
:10170000F08311209FE78020704701F0A5FDE0E7FE
:101710000025E0E7A3691868FFF720FBE0E7D4F8AD
:1017200018800A4A29464046FFF7B8FA28B163698B
:10173000BFF35F8F00225A6085E73946D8F8000072
:1017400001AAFFF7BDFA0028A1D0F0E73D10000084
:101750001009002038B504460020FFF733FBD4E918
:1017600000311A688A4215D9511E19602168A36890
:101770000868A58A12F8012CE4681B1A0879DBB204
:10178000984205FB024400D20B710020FFF722FBB8
:10179000204638BD0024F8E738B5054600200C4641
:1017A000FFF710FB2A681368591C1160E968AA8AC0
:1017B000641AB4FBF2F41C700020BDE83840FFF757
:1017C00009BB00BF2DE9F041858ACE1C043D2E44A3
:1017D0000746B6FBF5F6FFF7BDFF78B3F6B24FF458
:1017E0008073013E0446C5800760838027D0804611
:1017F000002509E06379AE4203F101036371C8F883
:101800000000076080461AD03846FFF7A3FF013575
:101810000028EFD16679721E14D02346013082422F
:101820001B68FBD11F684EB1002523682146013596
:1018300038461C46FFF7B0FFAE42F6D100242046E2
:10184000BDE8F0812768EFE704300121FFF7D6BA41
:10185000F8B5012104460430FFF7DCFAC0B200B14C
:10186000F8BD6679721E12D02346013082421B6891
:10187000FBD11F68002EF3D00025236821460135D7
:1018800038461C46FFF788FFAE42F6D1F8BD276800
:10189000F2E700BF2DE9F8430446181DE688B0FBC7
:1018A000F6F30F46904606FB130013B1013B246884
:1018B000FCD1351A454528BF4546B8F1000F15D073
:1018C0004FF000090430A8EB050820442A4607EB36
:1018D000090102F0D7F84645A944246835464FF07F
:1018E000000028BF4546B8F1000FEBD1BDE8F883F2
:1018F00010B570B101280BD10D4C2369A0703BB11C
:10190000D3E900230120226198472369002BF7D1F6
:1019100010BD074CA36801226270002BF8D0D3E9F8
:1019200000230020A2609847A368002BF7D1EFE7BF
:101930000007002038B50A4C23786BB9094863606A
:10194000A3602361E36000F029F9054600F034F953
:1019500001232370284638BD8525284638BD00BFA1
:1019600000070020F118000038B5154CA378054693
:1019700073B110B14368012098470020FFF722FAA5
:10198000E3680133E3600020BDE83840FFF722BA86
:1019900003F0FF00FFF716FA65B1226942B19542E4
:1019A00008D0134601E09D4204D01B68002BFAD1F9
:1019B0002A602561E368002BE2D100F015F9DFE72A
:1019C0000007002008B5054B002808BF184600F0A6
:1019D00011FC10B9024B01221A7008BD303E000004
:1019E0001407002030B587B0057844688DF804509E
:1019F00002948568084A094B8DF80C50D0E90340E1
:101A000053F821308DF81400049452F8211001A8E5
:101A1000984707B030BD00BF1807002024070020FA
:101A20002DE9F04306461F4C16F8047B1E4844F887
:101A3000273015460C460FC8DFF870E0DFF870C09D
:101A40004EF8275085B0002D6D4685E80F002378AD
:101A500094F8019094F8028094F803E08DF8003037
:101A600029463B46257B67798DF8019018BF624671
:101A7000304694F804C0A668647B8DF8028008BFE5
:101A800000228DF803E08DF805C08DF806700296EF
:101A90008DF80C508DF80D4000F092FC05B0BDE8BB
:101AA000F08300BF18070020343E00002407002008
:101AB000E519000030B585B00478094A094B45683E
:101AC0008DF80040047AC068039053F821300195E6
:101AD0008DF8084052F821106846984705B030BD8F
:101AE000300700203407002030B585B00478456801
:101AF0008DF80040D0E90240064A074B039053F8A6
:101B0000213001958DF8084052F821106846984719
:101B100005B030BD3007002034070020F0B51A4B67
:101B200006781A4D0C6991F81DE045F826400746E5
:101B3000174803F806E040F826200C4694460FCCE0
:101B400089B06D460FC594E80F0085E80F00049634
:101B5000BEF1000F0BD0BCF1000F0E4A694607F131
:101B6000040008BF002201F0DDF909B0F0BDBCF1AE
:101B7000000F094A694607F10C0008BF002200F077
:101B8000B5FE09B0F0BD00BF1009002030070020ED
:101B900034070020B51A0000E91A0000054A13793D
:101BA0002BB90121106053711846117170478520BF
:101BB000704700BF38070020094B1A68D20706D4C7
:101BC0000122E02183F80013C3F880211A604FF04E
:101BD0008041044A0123C1F818351370704700BFD3
:101BE00000E100E01109002010B41349134B144A1E
:101BF0000020086083B0096801914FF08041022005
:101C0000019CC1F80403D86840F08071D960146861
:101C100044F001031360516853685B1AB3F50A5F1F
:101C2000FAD30649074B14600122C8601A6003B05A
:101C30005DF8044B704700BF04010040F0ED00E088
:101C4000001000E00800004010B5154B1A6882B083
:101C50007AB10021134A19601B68507900934FF044
:101C600080410123009CC1F8083310B911685371F9
:101C700088470D4B1A6882B100221A601B680193D5
:101C80004FF080420221074B0198C2F808131B68ED
:101C9000012002B0BDE81040184702B010BD00BFDF
:101CA0000001004038070020040100402DE9F04108
:101CB00086B00023A14A01931668012E00F05481DA
:101CC0001E469F4B1A68012A00F05D819D4B1A68E1
:101CD000012A00F06A819C4B1A68012A00F0778182
:101CE0009A4B1A68012A00F08481994B1A68012ADC
:101CF00000F09181974B1A68012A00F09E81964B63
:101D00001A68012A0CD0954B1B68012B00F0A581A5
:101D100016F0FF0F15D1002E30DB06B0BDE8F081C4
:101D20008F4AD2F804231706EDD500221A601A68EC
:101D300004926033049A1B68012B46F0800600F081
:101D40008C81884F00240125A30003F18043354294
:101D500003F5C0434FEA45050BD0D3F8100557F8FB
:101D60002420D3F81015C0F30420C1F3014102B1BF
:101D700090470134082CE7D1002ECEDA00224FF034
:101D8000FF33CDE90223774C012602AF94F950309E
:101D90005D1C2CD0DBB223F0C00006AA4FEAD00CA9
:101DA00002EB0C0E03F007021EF80C1C06FA02F2FE
:101DB00011421CD02518990995F9303054F8233078
:101DC000002B00F09881032900F098814FEA800CE5
:101DD0000CF1A04C1EF8145CDCF800E71540CEF3C3
:101DE000014E40F05C81BEF1030F00F0DE81002562
:101DF00094F95130581C2DD0DBB223F0C00006AA54
:101E00004FEAD00802EB080E03F007011EF80C2C75
:101E100006FA01FC12EA0C0F1CD02218990992F95B
:101E2000303054F82330002B00F05B81032900F0A0
:101E30005B81820002F1A0421EF8148CD2F800E708
:101E400018EA0C0FCEF3014E40F03681BEF1030FBD
:101E500000F0A68194F95230591C2DD0DBB223F04A
:101E6000C00006AA4FEAD00802EB080E03F00701F3
:101E70001EF80C2C06FA01FC12EA0C0F1CD02218DA
:101E8000990992F9303054F82330002B00F03C814E
:101E9000032900F03C81820002F1A0421EF8148C5C
:101EA000D2F800E718EA0C0FCEF3014E40F0E380C1
:101EB000BEF1030F00F06E8194F953305A1C2DD0FF
:101EC000DBB223F0C00006AA4FEAD00802EB080EEE
:101ED00003F007011EF80C2C06FA01FC12EA0C0FA5
:101EE0001CD02218990992F9303054F82330002B75
:101EF00000F0ED80032900F0ED80820002F1A042A5
:101F00001EF8148CD2F800E718EA0C0FCEF3014E3D
:101F100040F0BC80BEF1030F00F00081002D3FF4C3
:101F2000FCAE4FF0A043019AD3F8103593423FF432
:101F3000F4AE029A0193039228E700BF00610040CB
:101F400004610040086100400C61004010610040E5
:101F500014610040186100401C6100407C61004039
:101F600000600040400700209A49D1F8041311F0A6
:101F7000010170D0136013680493049B964B1A6898
:101F8000012A7FF4A3AE934AD2F8042397077FF582
:101F90009DAE00221A601B680493049B8F4B1A6845
:101FA000012A46F002067FF496AE8A4AD2F804234C
:101FB00055077FF590AE00221A601B680493049BBE
:101FC000874B1A68012A46F004067FF489AE814ADD
:101FD000D2F8042314077FF583AE00221A601B6831
:101FE0000493049B7F4B1A68012A46F008067FF48D
:101FF0007CAE784AD2F80423D0067FF576AE002274
:102000001A601B680493049B774B1A68012A46F0F8
:1020100010067FF46FAE6F4AD2F8042391067FF565
:1020200069AE00221A601B680493049B6F4B1A6808
:10203000012A46F020067FF462AE664AD2F80423F5
:1020400052067FF55CAE00221A601B680493049B65
:1020500046F0400653E60E4633E6654B00221A6012
:102060001B6805934FF0A043059AD3F810350193F0
:1020700046F000464CE6BEF1020F7FF41DAF032987
:1020800063D0002B3FF418AF984715E7BEF1020F5D
:102090007FF444AF032969D0002B54D13EE7BEF151
:1020A000020F7FF4A4AE032900F091800025002BDD
:1020B0003FF49EAE98479BE6BEF1020F7FF4CAAE96
:1020C000032956D0002B3FF4C5AE9847C2E603293A
:1020D0007FF424AF17F8082042EA0C0207F8082022
:1020E0000BE703297FF4B6AE17F8082042EA0C028A
:1020F00007F808209DE603297FF479AE17F80C5005
:10210000154307F80C5061E603297FF4D5AE17F8A4
:10211000082042EA0C0207F80820BCE60329BBD1DC
:102120004FF4003ED2F800C72CF4403CC2F800C780
:10213000D2F800C701354CEA0E0CEDB2C2F800C768
:10214000002B3FF4EEAE9847E8E64FF4403ED2F85D
:1021500000C72CF4403CC2F800C7D2F800C70135D4
:102160004CEA0E0CEDB2C2F800C78AE74FF4403ECD
:10217000D8E74FF4403ED2F800C72CF4403CC2F8F8
:1021800000C7D2F800C701354CEA0E0CEDB2C2F818
:1021900000C797E703297FF474AF4FF4003ED6E7FA
:1021A00003298FD14FF4003EE5E703297FF47FAF89
:1021B0004FF40035DCF8002722F44032CCF8002739
:1021C000DCF800272A43CCF8002701256FE74FF4FD
:1021D0004035EFE7006000400461004008610040C6
:1021E0000C61004010610040146100401861004023
:1021F0007C6100400D4A1378ABB903780C494FF06D
:10220000804003F00103C0F878350B68DB0706D483
:102210000123E02081F80003C1F880310B60012325
:102220001370002070478520704700BF12090020FE
:1022300000E100E010B54FF08043D3F8044361079C
:1022400004D5D3F8082103F58473C2B9A20602D5D8
:102250000E4B1A686AB963060AD50D4B1A683AB173
:1022600000210C4A196013680120BDE8104018478E
:1022700010BD0020074A186013689847EBE700215B
:10228000054A196013689847E0E700BF1401004051
:1022900018010040A00700209C07002008B5FFF7A8
:1022A000C9FFBDE80840FFF7CFBC00BF014B1B686A
:1022B000184700BFA407002038B50C4B984201D046
:1022C000002038BD00200D46FEF77CFD084B1C7930
:1022D00024B10020FEF77EFD112038BD01222046EA
:1022E0001D601A71FEF776FD204638BD00200040C3
:1022F000A4070020034B984203D1034B00221A602D
:102300001A71704700200040A4070020124BD3F838
:10231000182102B970470021104AC3F81811D3F8E8
:102320001811D37F82B0FF2B0191019908D0907FC3
:10233000012101FA03F34FF0A04148B1C1F80C3577
:10234000002353771372D2E90031054802B01847D1
:10235000C1F80835F4E700BF00300040AC070020AA
:10236000B40700204FF04023D3F8182102B970477A
:102370000021114AC3F81811D3F8181192F843300C
:1023800082B0FF2B0191019909D092F842000121FE
:1023900001FA03F34FF0A04158B1C1F80C35002306
:1023A00082F8413082F82C30D2E90931034802B07A
:1023B0001847C1F80835F2E7AC070020D80700201D
:1023C0002DE9F04F0579DFF80C824FEAC50A0AEBD8
:1023D0000507BF0008EB070B83B09BF81C60002EBD
:1023E00040F0D08099460C46036878490192064631
:1023F00051F8251000931846FFF75EFF002840F0C3
:10240000C580019A48F80720CBF80490217B94F806
:1024100000C0009B01294FF0A0474FF0010101FAD5
:102420000CF194BFC7F80C15C7F8081521784FF0C8
:10243000A04E01F5E0714FF0010C4EF821C0677815
:10244000FF2F00F0B08007F5E0790CFA07F14FF0AC
:10245000030CCEF80C154EF829C094F802C0BCF15C
:10246000FF0F00F09D800CF5E07E4FF0A0414FF093
:10247000040941F82E90E64694F802C0317901EB48
:10248000C10108EB810181F820C0E178FF2927D044
:1024900094F804904FF0010C0CFA01F14FF0A04CAD
:1024A000B9F1000F76D1CCF80815E1784FF0A04CC7
:1024B00001F5E0714FF003094CF82190317994F85F
:1024C00003C001EBC10108EB810181F81FC0317924
:1024D00094F804C001EBC10108EB810181F81EC032
:1024E0002178C3F80815C3F80C75C3F810E5A16886
:1024F000C3F82415617B277B003118BF0121022F0F
:1025000060D0032F49D0012F01D141F00201C3F85F
:102510005415A179C3F8C015002A47D040210722DD
:10252000C3F80413C3F8002531686379090B4AB274
:10253000002A3FDB02F1604202F561425B01DBB23F
:1025400082F800333268120B42F3C40323F0604375
:1025500023F0030303F1604303F5614302F01F021C
:10256000012101FA02F2C3F880211A60554408EBF8
:1025700085080022012388F81D2088F81C3003B04C
:10258000BDE8F08F082003B0BDE8F08F112003B044
:10259000BDE8F08FCCF80C1587E741F00601B6E7EF
:1025A0004FF0FF3E6AE74FF0FF3756E70722C3F8C8
:1025B0000025DBE7064A01F00F015B010A44DBB2AC
:1025C0001376BFE741F00401A1E700BF583E0000C9
:1025D000FCEC00E0AC0700202DE9F0470579DFF8BE
:1025E0004CC14FEAC50E0EEB05039B0080460CEB79
:1025F00003000E46417F82B0002940F086805CF8DF
:102600000330144623B112F0140F04BF01234377A3
:102610000EEB05070CEB870796E80F0097F81FA055
:1026200007F10C09BAF1FF0F89E80F0009D0BA7F52
:10263000012303FA0AF3002A6BD04FF0A042C2F83C
:102640000835326822B102F06043B3F1005F52D125
:10265000B36823B103F06043B3F1005F4BD1D8F806
:1026600000307168C3F84425C3F84815D6E9022143
:10267000C3F834250022C3F83815C3F81821D3F85D
:1026800018210192019A14F0010218BF0122C3F827
:10269000502514F0020218BF0122C3F8402522077A
:1026A0005CBF01221A610EEB05025CF8222062B1C8
:1026B00014F004004FF040021ABFC3F808230020B2
:1026C000C3F8042302B0BDE8F087D3F81821002A2C
:1026D000FBD075440CEB850C9CF81F20FF2A23D0FF
:1026E0009CF81E00012393404FF0A042C8B1002087
:1026F000C2F80C35E6E775440CEB850C002310207E
:102700008CF81D3002B0BDE8F087112002B0BDE8A2
:10271000F0874FF0A042C2F80C353268002A92D1FF
:1027200096E7C2F80835CDE70020CBE7AC070020DC
:1027300030B56C4AD2F8043399058BB066D5D2F81F
:102740002431002B62D00023C2F82431D2F8243186
:1027500003934FF40171644B0398C2F8081393F884
:10276000291009B9012151605E4902228DF8182013
:10277000D1F88024C1F880249869D9680992002290
:10278000CDE90710C3E90622D3E9001406A8A04743
:10279000544AD2F81C31BBB1534B186A596988426C
:1027A00069D350480022C0F81C21D0F81C010190C8
:1027B000019849B198688DF8182008915A610790DE
:1027C000D3E9001206A89047464AD2F84431DBB15B
:1027D0000021454BC2F84411D2F8440193F8291066
:1027E0000090009809B1012111609A6962B100223C
:1027F000586AD9689A610122CDE907108DF818202E
:1028000006A8D3E9001290470BB030BD354AD2F884
:1028100004335B07BCD5D2F80831002BB8D0324B5B
:10282000996900293CD00021C2F80811D2F808119A
:1028300004910499D868596AD2F8182542545A6A02
:10284000996901325A625A6A8A42A1D1DA691968D1
:10285000002A2ED0D8685D6A1C699A610790002210
:102860000120DC60DA615A628DF8180008955B6817
:1028700006A898478CE793F8280000F0FF0400288A
:102880008FD1C2F81C41D2F81C11029102999C68A8
:10289000186A196A205C01311962C2F81C0593E7B5
:1028A000C2F80811D2F8080105900598D2F8182549
:1028B000C9E793F8292012B90A4A01205060094A51
:1028C0004FF40170C2F80803586ADA6808900024CF
:1028D000012007928DF818005A689C6106A890475D
:1028E00056E700BF00200040F40700202DE9F0412A
:1028F000DFF8988107792C2606FB078682B096F8C8
:102900002A30002B40F08F800D4604465C49006859
:102910001646FFF7D1FC002840F081802B68591C37
:102920000CD001224FF0A04102FA03F3C1F80835A0
:102930002B6803F5E073032241F823206B685A1CCF
:1029400006D003F5E0734FF0A042002142F82310B7
:102950002368AA69C3F82425297D6B7D22680B436F
:10296000C2F86C35D5E900122368C3F81425C3F802
:102970000C152B7D012B5AD02C2303FB07F308EBFE
:10298000030256602A6948F80320002E34D02268DA
:102990002B7F3C4D0021C2F81C11D2F81C21009263
:1029A0002268009EC2F84411D2F8441122680191B5
:1029B0000199C2F804532168090B4AB25B01002A4D
:1029C000DBB256DB02F1604202F5614282F800336D
:1029D0002268120B42F3C40323F0604323F0030385
:1029E00003F1604303F5614302F01F02012101FA84
:1029F00002F2C3F880211A602C23246803FB0783AA
:102A0000002204250121C4F8005583F82A10C3E9E7
:102A1000062283F829205A6102B0BDE8F081112016
:102A200002B0BDE8F081082002B0BDE8F081AB68DB
:102A3000591C06D003F5E0734FF0A042002142F884
:102A40002310EB685A1C0DD001224FF0A04102FA6E
:102A500003F3C1F80835EB6803F5E073032241F88E
:102A60002320EB682268A968C2F80835C2F810155F
:102A700082E7054A01F00F010A441376A8E700BF78
:102A80003127000080000200FCEC00E0F407002089
:102A9000F8B52F4D047902682C2303FB0453002161
:102AA0005B68C2F8001583B103682A4AC3F808239B
:102AB0000368294E1B0B5AB25209203203F01F0340
:102AC000012101FA03F346F8223003684FF0FF3288
:102AD000D3F80CC5D3F81475D3F80815D3F81065DE
:102AE000C3F81425C3F80C2503689445C3F80825DA
:102AF000C3F8102506D00CF5E07C4FF0A04302226D
:102B000043F82C207B1C06D007F5E0774FF0A0435C
:102B1000022243F82720721C06D006F5E0764FF01B
:102B2000A043022243F826204B1C06D001F5E07199
:102B30004FF0A043022243F821200068FFF7DAFBA0
:102B40002C2303FB0454002384F82A306360F8BD6F
:102B5000F40700208402020000E100E0F0B5314EED
:102B600005792C2303FB056385B05C69002C53D1E8
:102B70001C62996083F828405A610268C2F81C41BF
:102B8000D2F81C11026802910121029F9160026833
:102B9000D3F808C0C2F81C41D2F81C110191019968
:102BA000D3F820E0196A5F681CF80EE00131196261
:102BB000C2F81CE517B1204605B0F0BD1A6A5C6981
:102BC0000168944203D819E093F828203ABBD1F861
:102BD0001C21002AF8D0C1F81C71D1F81C210392E5
:102BE000039AD3F820E01A6A1CF80EE001321A6248
:102BF000C1F81CE51A6AA242E9D30168D1F81C3178
:102C0000002BFBD00123CB6000202C2303FB0565A8
:102C100000236B6105B0F0BD112005B0F0BD0F20A1
:102C2000F3E700BFF40700200379044A2C2101FBDD
:102C300003235869003018BF01207047F4070020B3
:102C4000F0B4514D04792C2303FB045386B05F6824
:102C500027B103684FF40176C3F808632C2303FB04
:102C600004539E696EB1DE690EB3002F00F08480BC
:102C700003684FF401721120C3F8042306B0F0BCBE
:102C8000704793F829709A61D9605E62DE61002F07
:102C900060D02C2202FB04520168536853B14FF4F8
:102CA0000173C1F80433002006B0F0BC704719610D
:102CB000DA61EEE7C1F84431D1F844310393039B64
:102CC0000368D3F82461D3F80871D3F8441157B9D5
:102CD000002936D1002EF4D02C2303FB045400230A
:102CE000A3610320E0E7002EF6D161BB966996B19F
:102CF000C3F80811D3F8081104910499D668516AF1
:102D0000D3F818357354536A916901335362536A87
:102D10009942D5D808E0C3F80861D3F808110591A5
:102D20000599D3F81835536A2C2303FB0454002269
:102D300094F82930A2610BB3036801211046196091
:102D4000B2E7002EC8D12C2303FB04540023A36157
:102D50000F20A9E70368C3F82471D3F8242103687E
:102D60000192019AC3F80871D3F80821036802920E
:102D7000012202991A608CE7112095E7026801216F
:102D80001846516090E700BFF40700200368D3F8AD
:102D90000801003018BF0120704700BF114A0379B5
:102DA0002C2101FB032393F82930D3B930B40468F4
:102DB00082B0C4F82431D4F8245104680095009DF1
:102DC000C4F80831D4F80841036801940124019D36
:102DD0001C60037901FB032282F8294002B030BC59
:102DE00070477047F407002003684FF40172C3F87E
:102DF0000823036801225A60704700BFF0B5474BB3
:102E0000D3F8242189B0002A54D00021C3F824111A
:102E1000D3F82421029202228DF81020029AD3F8CE
:102E200080043F4AC3F880040790D3F83C05D36878
:102E30008DF81800C2E9061105931168536804A8BB
:102E40009847364BD3F84421BAB10020344AC3F82E
:102E50004401D3F8444191690194019C69B1D3F8CC
:102E60003C458DF81840D3689061012405931168A2
:102E700053688DF8104004A89847284BD3F82021B8
:102E8000B2B10021264AC3F82011D3F8204150697D
:102E90000094009C60B1D3F84C0593688DF818003D
:102EA0008DF810105161059304A8D2E900139847DA
:102EB00009B0F0BDD3F810110029C2D0C3F8102119
:102EC000D3F810111648039103998169D3F83C4552
:102ED0008C42B6D1C569C768D0E90016E4B295B195
:102EE000D3F800C285612CF02005C261C3F80052FE
:102EF0000369C36001228DF8184005978DF81020F2
:102F000004A8B0479DE7012385618DF81840059717
:102F10008DF8103004A8B04793E700BF00200040B0
:102F2000200800202DE9F04307796B4E4FEAC708CF
:102F300008EB070306EB830385B093F82030002BE2
:102F400040F09E800D460446644900689146FFF7B4
:102F5000B3F9002840F090802B68591C0CD0012256
:102F60004FF0A04102FA03F3C1F808352B6803F5CE
:102F7000E073032241F823206B685A1C06D003F546
:102F8000E0734FF0A042002142F823102368AA69A1
:102F9000C3F82425297D6A7D23680A43C3F86C257C
:102FA000D5E900312268C2F80C35C2F814152B7D22
:102FB000012B69D008EB07029200B318C3F8049004
:102FC0002B69B350B9F1000F45D021682B7F444DD8
:102FD0000022C1F81021D1F8101100912168DDF80C
:102FE00000C0C1F82021D1F8201101912168DDF83D
:102FF00004C0C1F82421D1F8241102912168DDF820
:1030000008C0C1F84421D1F8441122680391039902
:10301000C2F804532168090B4AB25B01002ADBB2F3
:1030200054DB02F1604202F5614282F8003322680B
:10303000120B42F3C40323F0604323F0030303F1B4
:10304000604303F5614302F01F02012101FA02F21D
:10305000C3F880211A604744226806EB87060023E4
:103060000124082186F82040C2F80015C6E906337D
:10307000736105B0BDE8F083112005B0BDE8F083B1
:10308000082005B0BDE8F083AB68591C06D003F5F5
:10309000E0734FF0A042002142F82310EB685A1C65
:1030A0000DD001224FF0A04102FA03F3C1F8083518
:1030B000EB6803F5E073032241F82320EB682268F4
:1030C000A968C2F80835C2F8101573E7054A01F07F
:1030D0000F010A441376AAE720080020FD2D000006
:1030E00010030200FCEC00E0F8B506792F4C0268F2
:1030F000F500AB1904EB830300215B68C2F80015EF
:1031000083B103682A4AC3F808230368294F1B0BBD
:103110005AB25209203203F01F03012101FA03F3CE
:1031200047F8223003684FF0FF32D3F80CE5D3F8AC
:1031300014C5D3F80815D3F81075C3F80C25C3F8D7
:10314000142503689645C3F80825C3F8102506D052
:103150000EF5E07E4FF0A043022243F82E20BCF192
:10316000FF3F06D00CF5E07C4FF0A043022243F86D
:103170002C207A1C06D007F5E0774FF0A0430222FE
:1031800043F827204B1C06D001F5E0714FF0A04317
:10319000022243F82120354404EB85040068FFF740
:1031A000A9F8002384F820306360F8BD20080020CF
:1031B0001003020000E100E001F06043B3F1005FA2
:1031C0002CD1F0B50679234F4FEAC60C0CEB060460
:1031D00007EB840483B0636913BBA1606261056877
:1031E000C5F82031D5F820E10568CDF804E0DDF818
:1031F00004E0C5F85831D5F858E10568CDF800E08D
:10320000DDF800E0C5F84415C5F84825026801213D
:10321000916062683AB1184603B0F0BD1020704763
:10322000112003B0F0BD036800E08AB9D3F8201183
:10323000D3F858210029F8D0002A14BF0F2000200D
:103240000CEB060307EB830300225A6103B0F0BDC9
:103250000F20F5E7200800200379054A03EBC3039C
:1032600002EB83035869003018BF0120704700BF8C
:103270002008002001F06043B3F1005F7ED1F0B47C
:103280000579464CEB005E1904EB860682B0766841
:1032900026B107684FF4047CC7F808C32B4404EB3D
:1032A00083039D69002D42D19A61DD61D960036875
:1032B000C3F81051D3F8106103680196019EC3F85A
:1032C0004451D3F8445103680095009DC3F8341568
:1032D000C3F83825036801221A6005790368EE00F7
:1032E000721904EB820252685AB14FF40472C3F8A7
:1032F0000423002002B0F0BC7047002942D100280E
:1033000046D1D3F81021D3F84411D3F82401002A70
:10331000F3D0354400284FF0000304EB850414BFBC
:10332000032018469942A36118BF0F20E2E7DD6928
:103330003DB12EB303684FF40472C3F80423112087
:10334000D8E71961DA610368C3F81051D3F8106146
:1033500003680196019EC3F84451D3F844510368B1
:103360000095009DC3F83415C3F838250268D2F8DB
:10337000003243F02003C2F80032AEE7102070475D
:103380001120B7E7354404EB85040F20A261B1E7B3
:10339000354404EB85040320A161ABE7200800203D
:1033A0000368D3F81001003018BF0120704700BF38
:1033B000036801225A607047014B01221A7070475E
:1033C0000C09002020BF40BF20BF70472DE9F04FFF
:1033D0004FF0A0438E4C03214FF40022C3F84C174A
:1033E00091B044F00104C3F808254FF47A754FF406
:1033F0007A40A047013DFAD1FEF79CFADFF84C82F3
:10340000C8F8000008B1FDF795F90020FEF7DAFAD8
:10341000C8F8000008B1FDF78DF90020FEF7A4FA06
:10342000FDF7E8FBC8F8000008B1FDF783F9794D16
:10343000794F95E80F004FF0A0464FF0040CC6F806
:1034400068C704AE86E80F0031460023734A74480B
:103450000497FEF7E5FA08B1FDF76CF995E80F005F
:1034600008AD85E80F006F4B08936C4A6E482946FB
:103470000023FEF7D5FA08B1FDF75CF9022203A894
:10348000DFF8B4A18DF80E20032342F60A550C9004
:103490000CA900226548ADF80C500D93CDE90EA3A0
:1034A000FFF79AF832254FF47A40A047013DFAD150
:1034B0005F4D2B781BB920BF2B78002BFBD0DFF89A
:1034C0007C91DFF88CB15B4E4FF0A043D3F8103500
:1034D0005B0158D44FF47A730093012200230DF15D
:1034E0000B013046FDF7BEFF0746C8F80000002874
:1034F000EAD19DF80B30752B6DD0082200214E4883
:1035000000F0CBFA082200214C4800F0C6FA002354
:1035100040F60B600827C9F800001A460CA943487A
:10352000CDF83090CDF838A0C9F804302B700D9745
:103530000F97FFF751F8002847D109274FF47A4039
:10354000A047013FFAD12B781BB920BF2B78002B65
:10355000FBD000273B4601220DF10B0100973046BE
:10356000FDF790FE3B460822334900973046FDF7B1
:1035700089FE39463046FEF759F84FF0A043D3F89C
:1035800010355B01A6D55A462D493046FDF7C0FDE2
:10359000C8F80000E0B94FF4FA674FF47A40A0474A
:1035A000013FFAD1274800F080FA4FF0FF31024680
:1035B00000913B4623493046FDF764FEC8F8000001
:1035C000002887D0FDF7B6F884E7FDF7B3F8B4E735
:1035D000FDF7B0F8DFE71C4800F067FA4FF0FF3165
:1035E000024600913B4618493046FDF74BFEC8F8AD
:1035F000000008B1FDF79EF84FF4FA674FF47A40E7
:10360000A047013FFAD13046FDF7FAFD75E700BF4C
:10361000903E0000783E000017181B14B9330000DC
:10362000183F0000100F0E12083F00000C3F000072
:103630000C090020E03E0000440800204C08002057
:10364000983E00000000002018000020140900200F
:10365000C43E000030B4904B1B78062B20D08F4B1B
:103660001B68062B00F085808D4AD2F8883043F421
:103670007003C2F88830BFF34F8FBFF36F8F4FF0E6
:103680001023D3F80022002AC0F28681D3F8043236
:10369000002BC0F28181834B834A1A6030BC704793
:1036A000824B1B681D07DAD1814B1B6803F0F002C7
:1036B000302A00F09E8003F0E003402B00F0998058
:1036C0007B4B1B6803F0F003302B00F0B980784B84
:1036D0001B6803F0F002302A56D003F0E003402BC1
:1036E00052D0734B1B6803F0F003302B00F0B68010
:1036F0006F4B1B6803F0F002302A66D003F0E00342
:10370000402B62D06A4B1B6803F0F003302B00F0B3
:10371000B580674B1B6803F0F003302B79D0644B06
:103720001B6803F0F003502B00F0E480604B1B6833
:1037300003F0F002302A37D003F0E003402B33D0FF
:103740005B4B1B6803F0F002302A03D003F0E00368
:10375000402B84D14FF08043D3F80024D20744BFDC
:103760006FF00102C3F800244C4B1B68062B7FF45A
:103770007BAF504B1B68062B7FF476AF4E4A136825
:1037800043F4806313606FE74C4B434A1B68127825
:103790004B49C3F34233062A0B6048D1434B1B68A5
:1037A00019077FF45CAF9CE7464A3B4B12681B78D5
:1037B000454902F04F02062B0A607FF450AF3B4BA5
:1037C0001B6819077FF44BAFBAE74FF08043002224
:1037D000C3F80C21C3F81021C3F838252E4B1B78F1
:1037E000062B7FF43CAF314B1B681B077FF437AFD0
:1037F00088E7364B284A1B6812783549C3F30423FF
:10380000062A0B60EAD1294B1B681C077FF427AFFF
:1038100056E7304C204A304912783048304B052565
:10382000256001250D6000243F2104601960062AEF
:103830007FF415AF1D4B1B681C077FF410AF6EE7BC
:10384000154B284A1B7828491160062B7FF407AFD7
:10385000164B1B6818077FF402AF38E723490E4B5D
:10386000CA681B7822F08072062BCA607FF4F7AE1C
:103870000E4B1B681A077FF4F2AE39E7064B1C4A61
:103880001B780321062B11607FF4E9AE074B1B6800
:103890001D077FF4E4AE3CE7E00F00F030010010BC
:1038A00000ED00E0300000200090D003E40F00F0B5
:1038B000E80F00F0340100103C17004044020010F3
:1038C0003C05004058020010E40E004024030010A4
:1038D00040350140105600408856004018560040C0
:1038E0001456004074C007400DF0ADBAF0ED00E092
:1038F000A00500404FF08053404AD3F80414C2F8AA
:103900002015D3F80814C2F82415D3F80C14C2F803
:103910002815D3F81014C2F82C15D3F81414C2F8D3
:103920003015D3F81814C2F83415D3F81C14C2F8A3
:103930004015D3F82014C2F84415D3F82414C2F863
:103940004815D3F82814C2F84C15D3F82C14C2F833
:103950005015D3F83014C2F85415D3F83414C2F803
:103960006015D3F83814C2F86415D3F83C14C2F8C3
:103970006815D3F840142248C2F86C15D3F84414E3
:103980000378C2F87015062B7FF469AE1D4B1B68D7
:1039900018077FF464AEC9E61B4B0122C3F8042567
:1039A000D3F80024002AFBD04FF01023152216492B
:1039B000C3F80022D1F80034002BFBD04FF01022C6
:1039C0001521114BC2F80412D3F80024002AFBD0B1
:1039D00000220D49C3F80425D1F80034002BFBD098
:1039E000BFF34F8F09490A4BCA6802F4E0621343E0
:1039F000CB60BFF34F8F00BFFDE700BF00C00040AA
:103A0000E00F00F0E40F00F000E0014000ED00E006
:103A10000400FA0508B5074B044613B10021AFF3C3
:103A20000080054B1868836A03B19847204600F070
:103A300045F800BF00000000583F000070B50D4E73
:103A40000D4CA41BA4100025A54209D10B4E0C4C13
:103A500000F0B6F9A41BA4100025A54205D170BD45
:103A600056F8253098470135EEE756F82530984747
:103A70000135F2E79400002094000020940000201B
:103A80009800002010B5431E0A44914200D110BD99
:103A900011F8014B03F8014FF7E702440346934244
:103AA00000D1704703F8011BF9E7034613F8012B17
:103AB000002AFBD1181A013870470000FEE700BF4A
:103AC00053B94AB9002908BF00281CBF4FF0FF3185
:103AD0004FF0FF3000F072B9ADF1080C6DE904CE83
:103AE00000F006F8DDF804E0DDE9022304B07047D9
:103AF0002DE9F047089E04468846002B4BD18A42A8
:103B0000154667D9B2FA82F24AB1C2F1200701FA2A
:103B100002F320FA07F7954047EA030894404FEA7A
:103B2000154E230CB8FBFEF71FFA85FC0EFB178819
:103B300043EA084307FB0CF1994209D9EB1807F156
:103B4000FF3080F01B81994240F21881023F2B44E4
:103B50005B1AA4B2B3FBFEF00EFB103344EA03443D
:103B600000FB0CFCA44509D92C1900F1FF3380F0AF
:103B70000781A44540F2048102382C4440EA074002
:103B8000A4EB0C0400271EB1D4400023C6E9004377
:103B90003946BDE8F0878B4209D9002E00F0EB8052
:103BA0000027C6E9000138463946BDE8F087B3FA78
:103BB00083F7002F47D18B4202D3824200F2FA8072
:103BC000841A61EB030301209846002EE0D0C6E979
:103BD0000048DDE702B9FFDEB2FA82F2002A40F0C7
:103BE0008F80491B4FEA154E1FFA85F80127B1FB5C
:103BF000FEFC230C0EFB1C1143EA014308FB0CF1F5
:103C0000994207D9EB180CF1FF3002D2994200F229
:103C1000CD808446591AA3B2B1FBFEF00EFB1014FE
:103C200043EA044408FB00F8A04507D92C1900F129
:103C3000FF3302D2A04500F2B6801846A4EB080478
:103C400040EA0C409FE7C7F1200CBB4022FA0CFE73
:103C50004EEA030E01FA07F420FA0CF521FA0CF3F0
:103C60004FEA1E482543B3FBF8F92C0C08FB193327
:103C70001FFA8EFA44EA034309FB0AF49C4202FA53
:103C800007F200FA07F10BD91EEB030309F1FF302D
:103C900080F087809C4240F28480A9F1020973443D
:103CA0001B1BADB2B3FBF8F008FB103345EA03442D
:103CB00000FB0AFAA24508D91EEB040400F1FF3309
:103CC0006BD2A24569D90238744440EA0940A0FB8E
:103CD0000289A4EB0A044C45C2464B4654D351D04A
:103CE000002E69D0B1EB0A0564EB030404FA0CFC66
:103CF000FD40FC404CEA0505C6E90054002747E7B3
:103D0000C2F1200320FA03F7954001FA02F021FAEC
:103D100003F34FEA154E3843010CB3FBFEF71FFACD
:103D200085F80EFB173341EA034107FB08F38B428A
:103D300004FA02F407D9691807F1FF3C2FD28B422D
:103D40002DD9023F2944CB1A81B2B3FBFEF00EFB02
:103D5000103341EA034100FB08F38B4207D969188D
:103D600000F1FF3C17D28B4215D902382944C91AF9
:103D700040EA07473BE73746304609E70746E7E6AC
:103D80001846FBE64145ABD2B8EB020A69EB0E02DE
:103D900001381346A4E76046E9E7184695E7674609
:103DA000D1E781467CE702382C4447E7ACF1020CAE
:103DB0002B442FE7384608E73746E9E6704700BF4F
:103DC000F8B500BFF8BC08BC9E467047F8B500BF08
:103DD000F8BC08BC9E4670474261636B656E6473B5
:103DE00020666C7573686564000000006170700087
:103DF00062616C6C6F632E6C6F675F6D656D706F69
:103E00006F6C0000466174616C206572726F7200A5
:103E100053797374656D20726573657400000000DA
:103E20000338FDD870470000636C6F636B000000BF
:103E300000000000FFFFFFFF0007FF000000004040
:103E400000000000434C4F434B0000004750494FD7
:103E500054450000505253000D230000652300001C
:103E60005350494D000000005541525400000000DD
:103E70005541525445000000FFFFFFFF07FF0000BF
:103E80000000002000000000000000000000000012
:103E90000338FDD8704700000C0000000600000049
:103EA0000700000005000000000000000000000006
:103EB00000E0D70107000000580800205408002047
:103EC0000101000001000000D83E0000B83E0000E3
:103ED00000000000C5330000E83F0000D03F0000B4
:103EE0000000000000200040000000000020004012
:103EF00000000000BC080020043F0000003F00005C
:103F0000CC080020EC080020010000000040004028
:103F1000010000000100000000000000003000402F
:103F2000000000000100000071756575652E736565
:103F30007269616C5F7175657565735F7478710026
:103F400071756575652E73657269616C5F717565F4
:103F50007565735F72787100340000200000000006
:103F6000443E0000000000004C3E00000000000045
:103F7000543E000000000000603E00000000000011
:103F8000683E000000000000703E000000000000DD
:103F9000EC3D000000000303F03D000000000003C2
:103FA000283E000000000000403F00000000000329
:083FB000283F0000000000039F
:103FB800E4000020AC010020B4010020EC00002047
:083FC800B80000201800000001
:103FD000B00800208C080020200000000100000034
:103FE00001000000C4000020800800205C080020C0
:103FF000200000000100000001000000C0000020BF
:0840000040C2FF7F0100000037
:1040080053657269616C20496E697469616C697A7B
:1040180065640A0D0000000053657269616C2055E3
:104028006E696E697469616C697A65640A0D00006D
:104038000090D00300000000000000000000000015
:104048000000000000000000000000000000000068
:104058000000000000000000000000000000000058
:104068000000000000000000000000000000000048
:104078000000000000000000000000000000000038
:104088000000000000000000000000000000000028
:0C409800000000002502000001020000F2
:1040A400000000000000000000000000000000000C
:1040B40000000000000000000000000000000000FC
:0C40C400000000000000000000000000F0
:04000003000002B542
:00000001FF
