:1000000000000120B5020000DD020000DF02000058
:10001000E1020000E3020000E50200000000000031
:10002000000000000000000000000000E7020000E7
:10003000E902000000000000EB020000ED020000F9
:10004000EF020000EF0200006D240000CD2400004C
:10005000EF020000EF020000251F0000EF02000089
:10006000EF020000EF020000EF020000EF020000CC
:10007000EF020000EF020000EF020000EF020000BC
:10008000EF0200006D0F0000EF020000EF02000021
:100090000D100000EF020000EF020000EF02000070
:1000A000EF020000EF020000EF020000EF0200008C
:1000B000EF020000EF02000000000000000000005E
:1000C000EF020000EF020000EF020000EF0200006C
:1000D000EF020000EF020000EF020000000000004D
:1000E0000000000000000000000000000000000010
:1000F0000000000000000000000000000000000000
:1001000000000000000000000000000000000000EF
:1001100000000000000000000000000000000000DF
:1001200000000000000000000000000000000000CF
:1001300000000000000000000000000000000000BF
:1001400000000000000000000000000000000000AF
:10015000000000000000000000000000000000009F
:10016000000000000000000000000000000000008F
:10017000000000000000000000000000000000007F
:10018000000000000000000000000000000000006F
:10019000000000000000000000000000000000005F
:1001A000000000000000000000000000000000004F
:1001B000000000000000000000000000000000003F
:1001C000000000000000000000000000000000002F
:1001D000000000000000000000000000000000001F
:1001E000000000000000000000000000000000000F
:1001F00000000000000000000000000000000000FF
:1002000010B5054C237833B9044B13B10448AFF350
:1002100000800123237010BD200200200000000098
:10022000203B000008B5034B1BB103490348AFF363
:10023000008008BD0000000024020020203B0000D8
:10024000154B002B08BF134B9D46A3F5803A0021A8
:100250008B460F461348144A121A03F0A6FA0F4BA6
:10026000002B00D098470E4B002B00D09847002061
:10027000002104000D000D48002802D00C48AFF307
:10028000008003F043FA2000290002F0DBFF03F0B6
:1002900029FA00BF00000800000001200000000053
:1002A0000000000020020020A8090020000000003B
:1002B000000000000649074A074B9B1A03DD043B78
:1002C000C858D050FBDC03F02DF8FFF7B9FF000051
:1002D0007C3B00000000002020020020FEE7FEE73B
:1002E000FEE7FEE7FEE7FEE7FEE7FEE7FEE7FEE7E6
:1002F000F0B595B0002415460F4608461E4601F09D
:10030000B3FC384623460895082205A91A9D09968C
:100310000D950A948DF82C400C9401F0F9FC9DF891
:1003200014308DF81140DDE9061003F00302012AB4
:10033000CDE9020127D0022A04D0384601F098FC0A
:1003400015B0F0BDBDF81650C3F3C2038DF81030E0
:10035000AD090826082D2C4628BF0824334622461E
:100360000EA9384601F0D4FC2D1B214608AB02AA89
:100370000EA8264400F0C6FC002DEBD1384601F053
:1003800077FC15B0F0BDBDF81460059DC6F383166B
:10039000C3F3C204B2000EA9384608238DF81040FA
:1003A000C5F3952501F0B4FC08AB324628460EA9EA
:1003B000009302AB00F000FC384601F059FC15B088
:1003C000F0BD00BF014B01221A707047800200206F
:1003D000704700BF00B583B0044B0093044A40232C
:1003E000FFF786FF03B05DF804FB00BFF5030000D4
:1003F0004002002038B50E480E4D03780E4CEB5CE1
:100400000025D2B2257053B90C3002F057FC58B910
:100410000A4B1B7813B12378002BFCD038BD043075
:1004200002F090FE0028F3D000F05AFDF0E700BF84
:1004300000000020A4090020800200203C020020CF
:1004400070B51348134A0378D35C88B0DBB90C301D
:1004500002F0CEFB104D0FCD6C460FC495E80F0097
:1004600008AD062645F8206D84E80F0029460022D5
:10047000074801F017FD08B100F032FD074B0022DC
:100480001A7008B070BD043002F0F4FDE2E700BF5E
:1004900000000020A4090020003800003C020020D9
:1004A00070B50D4D0FCD88B06C460FC495E80F00A8
:1004B00008AD062645F8206D84E80F002946074A56
:1004C000074801F0EFFC08B100F00AFD054B0122DE
:1004D0001A7008B070BD00BF00380000C5030000EE
:1004E000000000203C02002010B5054CFFF7D8FFAB
:1004F0002046042100F01EFB0123637210BD00BFE3
:1005000014000020F0B5314D85B005F5836000F092
:100510007BFF05F2144000F077FFD5E9012702EADE
:100520000704E31C05EB830319788E0701F0040030
:100530000ED0C8B101F00301012935D0022902F122
:100540000200EED15A8800EB921202EA0704E8E7B3
:10055000561C0028EED159881A8806EB911606EB36
:10056000921202EA0704DCE705EB8404531CE168FD
:1005700001913B4005EB830301F003010129DE6893
:1005800002F102041AD0022916D1BDF806309B09E7
:100590000333360C04EB93040D4800F041FF00B127
:1005A0006C60304605B0F0BD1B880232C3F3831384
:1005B0001A4402EA0704B4E70646EDE7BDF8043042
:1005C000C3F38313360C1C44E6E700BF540300203A
:1005D0006807002008B50E4B0E480022FF21C3F823
:1005E00018249960C3E90022C3F8142483F8202456
:1005F00001F0F6FA58B9084A084BD21AD20806D0C8
:100600000749034621F8233001339A42FAD108BD45
:10061000540300205C3B00005C3B0000243B0000D6
:100620000402002021B9134A02EBC00000687047A1
:1006300030B411490F4C091BC90816D00F4B5A880A
:10064000824218BF002205D111E0DD88854203F106
:10065000040305D001329142F7D1002030BC70472D
:1006600004EBC200006830BC70470846F6E720463D
:10067000F8E700BF243B00005C3B000004020020C0
:10068000094B013903EBC00003290BD8DFE801F067
:1006900002080604022070474079704700797047CD
:1006A0000420704700207047243B00002DE9F843E8
:1006B000DFF8D890074600208846D9F8084000F0B7
:1006C0006FFED9E90132D9F80060134401339B1B56
:1006D000012B56D809F21C450121284600F07CFE6A
:1006E000FFF710FF0146284600F076FED9E90132F7
:1006F000D9F80010134401335B1A012BECD90A40DE
:10070000033205230231002049F82230C9F80010D5
:1007100000F04EFE00211C4800F054FE80F3100053
:10072000731C234009EB830300043440033440EA84
:100730001740D86019F8243067F3C50309F824304E
:1007400039F824306FF3891329F8243059F824201C
:1007500068F39F221346012161F301036FF38203C3
:1007600049F8242009F8243099F820341BB906E010
:1007700000F00EF818B1D9E900329A42F8D1BDE87C
:10078000F8833146BBE700BF700700205403002008
:100790002DE9F0478D4D002384B0C5F81834BFF320
:1007A0004F8FD5E901462B680CE037B301F0030108
:1007B00001294ED0022903D15288023404EB92144D
:1007C000A34215D904EA0600C21C05EB8202117887
:1007D00011F0030F01F00407E7D1002FE6D1518893
:1007E0001288013404EB911404EB9214A342E9D86B
:1007F00000206B6004B0BDE8F08705EB8000631C4F
:10080000C2680192334005EB830302F00302DB6808
:100810000293022A04F102087ED0012A1FD0D5F8E3
:10082000104434B1236820469B6898476468002CC4
:10083000F8D1674B67491888000440F00200FFF7C1
:1008400035FFD5E90030C01A18BF012004B0BDE85B
:10085000F08712880234C2F383121444B0E7BDF863
:1008600004205D48C2F38313062B28BF062363F3DD
:10087000891202339900ADF8042001F0B3F98146E2
:100880000028CCD001F0F0F93B46082201A94846E7
:1008900001F010FABDF8043013F4707F00F093807B
:1008A0006FF0010AAAEB040A082406EA08010331E2
:1008B0002346042205EB8101484601F0FBF9BDF80F
:1008C000043008F101070AEB0702C3F383139342D4
:1008D000B84604F10404E8D8D5F81834002B67D1E1
:1008E000D5F8104454B1637A20464946002B5BD0BA
:1008F00023681B6898476468002CF4D1484601F0CF
:10090000B7F9002000F04CFDD5F8183403B96F603A
:10091000002000F04DFD94E7BDF806302E489C09FC
:10092000502CA24628BF4FF0500A6AF38F130AF1E9
:100930000801ADF8063001F055F9814600283FF472
:100940006EAF01F091F93B4626EA0807013708220D
:1009500001A94846BF0001F0ADF9BA4519D95FFABF
:100960008AF34FB306EA0801DB1B033105EB810173
:10097000DEB23A460823484601F09CF9324607F1B8
:1009800008031649484601F095F9033408EB94072B
:10099000A2E706EA0801033105EB8101524608236C
:1009A000484601F087F9F0E76468002C9BD1A5E781
:1009B000484601F05DF944E7524608230749484696
:1009C00001F078F9E1E7474686E700BF54030020CD
:1009D000180200202C3800005C3B0000600300205F
:1009E0002DE9F04FDFF830B183B08246002002F1EC
:1009F000030891460191DBF8084000F0D1FCDBE9E7
:100A00000121DBF800700A444FEA98080132D21B3A
:100A100008F10206964279D90BF21C4501212846BD
:100A200000F0DAFCFFF76EFD0146284600F0D4FC2A
:100A3000DBE90121DBF800000A440132121A964278
:100A4000ECD8014003310622064468F39F5200208F
:100A50004BF82120CBF8006000F0AAFCDBF808502E
:100A6000B81C204001352D1AAD000330A9450BEB11
:100A700080003DD801994A4602F08CFE00212448AE
:100A800000F0A0FC80F310007A1C22404FEA1A41CB
:100A90000BEB82023C40033441EA0040D0601BF87B
:100AA00024206AF3C5020BF824203BF824206FF3BE
:100AB0008F122BF824200BEB84020220518869F35B
:100AC0008F1151801BF8242060F301026FF3820222
:100AD0000BF824209BF820241AB906E0FFF758FEF3
:100AE00018B1DBE900219142F8D103B0BDE8F08FE5
:100AF000019E2A46314602F04DFE33462B441946EC
:100B0000A9EB0502034802F045FEB7E7384698E72F
:100B1000700700206003002054030020044BD3E939
:100B200000239A4201D0FFF733BE0020704700BF78
:100B30005403002030B4154DD5F81044002154B1B1
:100B4000237A8B4213D0234602E01A7A8A420ED0CF
:100B50005B68002BF9D10172D5F810347BB15B686A
:100B60004360D5F81034586030BC084670470131F6
:100B70000A29E4D14FF0FF31084630BC7047C5F870
:100B80001004436030BC0846704700BF5403002087
:100B900038B5084BD3F81044012583F820543CB1F4
:100BA0002368657220465B6898476468002CF7D11B
:100BB00038BD00BF540300202DE9F04784B01D4626
:100BC0000C9C002394F80C802373EB8881460E461E
:100BD0001746002B40D1297A05290ED06B7AA888B8
:100BE00073BB404B53F821A00021FFF71BFD524679
:100BF00003463D49204600F07FFC062F09D8DFE878
:100C000007F0046A4249525D33004946204600F02D
:100C100073FC2B7A052B05D06B7A5BB933492046E0
:100C200000F06AFC204600F05BFC84F80C8004B005
:100C3000BDE8F0872E4A2F49204600F05DFCEDE725
:100C4000FFF71EFD2C4B2B4953F82020204600F0C7
:100C500053FC297AA888C4E7254A00922749284AE4
:100C6000204600F049FCB6E7D6E90410D6E9002397
:100C70000390D6E902070291CDE9000749462046D4
:100C800000F03AFCC5E74946D6E90023204600F0CB
:100C900033FCBEE7B168D6E90023204600914946FF
:100CA00000F02AFCB5E7D6E90201D6E9002301915C
:100CB00000904946204600F01FFCAAE7D6E90371E0
:100CC000B068D6E900230291CDE9000749462046E5
:100CD00000F012FC9DE732684946204600F00CFC0B
:100CE00097E700BFCC380000BC380000C8380000CF
:100CF000B0380000B83800005838000098380000BC
:100D000090380000082900D970472DE9F04F1D46A2
:100D1000904600232A7B2B7385B0B8F806300392E7
:100D200007460E46002B78D198F80810052911D0F7
:100D300098F80930B8F80400002B60D13B4B53F809
:100D400021400021FFF76EFC224603463849284621
:100D500000F0D2FBDFF8F8B0DFF8F890002405E0EF
:100D60003A5D013400F0C8FB082C09D0A642494680
:100D70002846F5D85946013400F0BEFB082CF5D1C1
:100D80002C49DFF8D490DFF8D4B0284600F0B4FB4B
:100D9000002411E017F804A002F0DCFC504459468E
:100DA000437813F0970F14BF52462E222846013481
:100DB00000F0A2FB082C08D0A64249462846E9D8F4
:100DC000013400F099FB082CF6D198F80830052B77
:100DD00002D098F8093063B91749284600F08CFB17
:100DE000284600F07DFB9DF80C302B7305B0BDE864
:100DF000F08F124A1249284600F07EFBECE7FFF71D
:100E00003FFC104B0E4953F82020284600F074FB9D
:100E100098F80810B8F8040090E7084A00920A49C8
:100E20000A4A284600F068FB7EE700BFCC38000085
:100E3000BC38000088380000C8380000B038000016
:100E4000B83800005838000098380000903800008A
:100E5000843800007C380000C43800008C38000062
:100E6000074B4FF0A041185CD1F8043501228240B5
:100E700022EA03001340C1F80805C1F80C35704799
:100E800038390000C20730B41AD54FF0A04303220E
:100E9000C3F844274FF40035C3F848274FF48024A3
:100EA000C3F84C274FF40021C3F850274FF48012A9
:100EB000C3F80855C3F80845C3F80815C3F8082552
:100EC00083070AD54FF0A0430C22C3F83427C3F898
:100ED0003827C3F83C27C3F8402730BC704700BF11
:100EE00000B585B000230390194601AA44F2010021
:100EF000CDE9013300F004F805B05DF804FB00BF54
:100F000010B572B6FFF744FEFFF708FE0028FBD1CC
:100F1000104C11492088000440F00100FFF7C6FB87
:100F20000E4B1B68DB0700D500BE20880C4900046F
:100F300040F00200FFF7BAFBBFF34F8F09490A4B9D
:100F4000CA6802F4E0621343CB60BFF34F8F00BF67
:100F5000FDE700BF180200203C390000F0ED00E082
:100F60004839000000ED00E00400FA05F8B5204A19
:100F7000204B0024C2F84041C2F84441C2F8484125
:100F8000C2F84C41C2F80041C2F804411B6833B3B7
:100F90001949D2F804550A68AD1A1A6825F07F4538
:100FA000AA4227460DD8197CDE69AD1A144419B13E
:100FB0001F74D3E9052090471EB133461A68AA4230
:100FC000F1D90E490E4A0B7812789A4208D00D4991
:100FD0000D4A41F823404FF48013C2F80031F8BDA8
:100FE000531CDBB2022B08BF00230B70EFE700BFDE
:100FF000001001409808002094080020910800206B
:10100000900800208808002000E100E02DE9F04F62
:101010008C4A8D4913780978DFF85082994285B05F
:10102000D8F800A000F07B810133DBB2022B08BFAF
:10103000002386481370864A076852F823107B18ED
:1010400023F07F4300240360534626462046A446EF
:10105000ABB11A688A4200F26581DC68C3F800C04F
:10106000891A1044DA6934B13D1825F07F45C3E987
:101070000154DE611E4613460124002BE9D1002CE9
:1010800040F07C8101230093724B734FDFF8E091B5
:1010900043F00103019355464FF0000B46B3D6E9E8
:1010A00001C13446F669694B6C481A68ACEB02031F
:1010B00023F07F43834248D80B4423600022012160
:1010C000C4E90122E2612174002D5DD02A689A42B0
:1010D0004DD2284603E00A689A424FD20846C169B9
:1010E0009B1A0029F7D12360E161C461002ED6D19B
:1010F00078783978884264D00B4603EB43034C1C64
:10110000BA7807EBC303E1B28A421A79397004BF97
:1011100000213970022A9C6844D0032A38D0012A61
:10112000E8D1227C002AE5D1D3F80CC0C4F804C071
:101130001969A1605869E06099F800009B69A36192
:101140000028B0D062609446ADE7A2EB0C0222F01A
:101150007F428A4202D28B1A2360AFE7002301222A
:10116000C4E90033A360E36122746DB12A68C8F852
:101170000040D31A2B60E56125468FE7D21A0A603A
:101180002360E161C461B1E7C8F80040254685E706
:10119000002DAFD000232B74ED69002DFBD1C8F8D2
:1011A0000050A5E74DB1AC422B4603D1E4E0944298
:1011B0002FD01346DA69002AF9D10023237488421C
:1011C0009AD1BBF1000F01D1554553D0002D56D116
:1011D000234E244A1F4C4FF480334FF40031012733
:1011E000C2F880103C43C6F848334FF43C60C6F860
:1011F00008337760A047154BB7604FF43C601D6023
:10120000A047194B1D70002389F8003005B0BDE8D8
:10121000F08FA34200F09180E0692168D861002836
:1012200000F086802A4603680B440360AA424FF010
:1012300000033978787823741CBF15464FF0010BF2
:10124000BDE700BF9008002091080020940800200E
:10125000880800206039000078070020FEFF7F002A
:101260000010014000E100E08508002098080020FF
:1012700084080020009B002BC5D0002DA8D0434B34
:10128000434A1C68D2F80465424FD5F800A039786B
:10129000331B23F07F43DD1CB9B93F493F4B4FF46B
:1012A0008030C2F844034FF00108C2F804034FF441
:1012B0000030C1F8800143F001030860C2F80080EB
:1012C0004FF43C60984787F80080AA452CBF04EB98
:1012D0000A0363192E4923F07F43C1F84035D1F842
:1012E0000425921B9B1B22F07F4223F07F43033295
:1012F0009A4288D9294BD1F80425C1F8402543F0FA
:1013000001034FF43C609847234B4FF40032C3F87D
:101310000021002389F8003005B0BDE8F08F0026D9
:101320000096B1E674BB521A1A6001230093ABE633
:10133000002339787878237441E71946EA69C8F8B8
:10134000002092B9CDE90231114BDFF840C00120F5
:101350009860019B89F80000CCF800204FF43C60B5
:101360009847DDE90231D8F80020C8690968D861DA
:1013700000287FF458AF59E72946DFE7C8F8003066
:101380009A467FE6C8F800309A46CCE794080020D9
:10139000001001408508002000E100E060390000F5
:1013A00072B6024A13680133136070479C0800202C
:1013B000034A1368013B136003B962B6704700BF6C
:1013C0009C08002050E8002F0B4640E8003C9CF0B1
:1013D000000FF7D11046704750E8003F03EB0102C1
:1013E00040E8002C9CF0000FF6D11046704700BF7B
:1013F00050E8003FA3EB010240E8002C9CF0000FF6
:10140000F6D11046704700BF012350E8002F42EA92
:10141000030C40E800C191F0000FF6D16046704720
:10142000002350E800CF0CEA030240E8002191F0CD
:10143000000FF6D160467047B8B130B4D0E9011260
:10144000521A0468D2B2531E2160DBB242B1016865
:101450000A685C1E551C0D601370E3B2FF2BF6D1B9
:1014600003680020187130BC70470E20704700BF21
:1014700038B504460020FFF793FFD4E900311A681D
:101480008A4215D9511E19602168A3680868A58A87
:1014900012F8012CE4681B1A0879DBB2984205FBAC
:1014A000024400D20B710020FFF782FF204638BDB6
:1014B0000024F8E738B5054600200C46FFF770FF1A
:1014C0002A681368591C1160E968AA8A641AB4FB77
:1014D000F2F41C700020BDE83840FFF769BF00BF80
:1014E000826842B110B504464369016800699847B3
:1014F0000023A36010BD70470EB400B582B00399FD
:1015000029B102AA04AB42F8043D00F08BF802B006
:101510005DF804EB03B070472DE9F84F884690451D
:10152000174605461E46DDE90AB175D343464FF01E
:101530000109B3FBF7F39F4209F10109F9D9B1455C
:1015400038BFB14611F0010AAA6802D1BBF1000F01
:1015500043D1012402E0013E07FB04F4012EFAD836
:10156000B8FBF4F18F42F7D92D4E05E0B4FBF7F448
:10157000A4B1B8FBF4F1AA68705C531CAB602B6893
:101580009854D5E901329A4204FB1188EED32846DB
:10159000FFF7A6FFB4FBF7F4002CEAD1BAF1000F75
:1015A00015D0BBF1000F12D0CB4510D92024AB6869
:1015B0002A68591CA960D454D5E901329A420BF12A
:1015C000FF3B06D2BBF1000F01D0CB45EFD1BDE808
:1015D000F88F2846FFF784FFF4E78B0717D4202401
:1015E000CB45B6D92B68511CA9609C54D5E9013272
:1015F0009A420BF1FF3B05D2BBF1000FA9D0CB45BE
:10160000F0D1A6E72846FFF76BFFAA68F4E7002EA3
:101610000CBF30242024E3E74FF001098FE700BF1F
:1016200068390000002900F0F4812DE9F04F0546EB
:1016300085B092460C460B78DFF8A0B501E0237820
:1016400093B1013483B1252B15D0AA682968501CA9
:10165000A8608B54D5E901329A42F0D32846FFF7AF
:101660003FFF2378002BECD12B7B002B40F0148123
:1016700005B0BDE8F08F2146002711F8012B2D2A77
:1016800000F0E180302A00F0E2802B2A00F0D280C6
:101690002A2A00F0E080A2F13006F3B2092B03D928
:1016A000B8E1A3F130060146084606EB860310F8C0
:1016B000012BA2F13004092C02EB4303F1D92E2AAD
:1016C00000F0D5800023013101E011F8012B02F078
:1016D000FB0068280C46F8D0253A532AAFD801A160
:1016E00051F822F0A51800003F1600003F16000038
:1016F0003F1600003F1600003F1600003F16000096
:101700003F1600003F1600003F1600003F16000085
:101710003F1600003F1600003F1600003F16000075
:101720003F1600003F1600003F1600003F16000065
:101730003F1600003F1600003F1600003F16000055
:101740003F1600003F1600003F1600003F16000045
:101750003F1600003F1600003F1600003F16000035
:101760003F1600003F1600003F1600003F16000025
:101770003F1600003F1600003F1600003F16000015
:101780003F1600003F1600003F1600003F16000005
:101790003F1600003F1600003F1600003F160000F5
:1017A0003F1600003F1600003F1600003F160000E5
:1017B000BF1800003F1600003F1600003F16000053
:1017C0003F1600003F1600003F1600003F160000C5
:1017D0003F1600003F1600003F160000D918000019
:1017E000FB1800003F1600003F1600003F160000E7
:1017F0003F160000FB1800003F1600003F160000D7
:101800003F1600003F1600003F1600003F16000084
:101810004B1900003F1600003F160000BF190000E2
:101820003F160000F91900003F1600003F160000A7
:10183000BF18000047F004070C46214611F8012BA1
:101840002D2A7FF41FAF47F001070C46F5E747F05C
:1018500002070C46F1E7DAF800301A1DCAF800203A
:1018600062781E682E2A04F102007FF42BAF4A78BA
:10187000A2F13003092B00F25081002303EB830314
:1018800002EB430310F8012FA2F130010929A3F163
:101890003003F3D9014616E7284605B0BDE8F04FFE
:1018A000FFF71EBEAB682A68591CA9604FF02501DE
:1018B000D154D5E901329A42FFF4C1AECEE6DAF84E
:1018C0000020111DCAF8001011682846CDE90067F4
:1018D0001022FFF721FEB2E6DAF80020131DCAF845
:1018E0000030AB6829681278581CA860CA54D5E942
:1018F00001329A42FFF4A3AEB0E6DAF80020111DDF
:10190000CAF80010D2F8008088EAE872A2EBE87208
:10191000092A4FF0010107DDAF48A0FB0202D208FF
:10192000092A01F10101F7DC994238BF19468946BD
:1019300007F00202002E71D12AB1002B00F047817E
:10194000FA0700F18D8000268AE0DAF80020131DE6
:10195000CAF80030AB6829681768581C3022A860A4
:10196000CA54D5E90123934280F028812A68581C83
:101970007821A860D154D5E90123934280F01981E0
:101980000F2F03D93A4612090F2AFCD84FF0805680
:1019900003E036093FF453AEAB682968B7FBF6F2B3
:1019A000581CA8601BF80200C854D5E901319942BF
:1019B00006FB1277EDD32846FFF792FDE9E7DAF848
:1019C00000301A1DCAF80020D3F80080FB077ED52E
:1019D0004746A7EB080917F8013B002B5DD0AA6822
:1019E0002968501CA8608B54D5E901329A42F0D383
:1019F0002846FFF775FDECE7DAF80020111DCAF85C
:101A0000001011682846CDE900670A22FFF784FD1F
:101A100015E6704708460026214650E6B8F1000F4B
:101A200001DB780700D5013E02B1CBB1F90717D42D
:101A3000002E88D0B14513D220220393A9682B68C9
:101A4000481CA8605A54D5E90131994206F1FF3685
:101A50005DD2002E00F0BD80B145EFD1039B4E4614
:101A6000B8F1000FC0F292807A070AD5A9684A1C23
:101A7000AA602A682B205054D5E90121914280F0B8
:101A8000928007F00302022A5FD0CDE90067414649
:101A90000A222846FFF740FDD1E54E457FF6CFAD3F
:101AA000202705E04E453FF4CAAD002E3FF4C7ADF8
:101AB000AB682A68591CA960D754D5E901329A420B
:101AC00006F1FF36EED32846FFF70AFDEAE7B8F144
:101AD000000F24D0404601F070FE0746BE4220D9D8
:101AE000FEB14FF0200902E0BE421AD0CEB1AB6881
:101AF0002A68591CA96002F80390D5E901329A427C
:101B000006F1FF36F0D32846FFF7EAFCECE728465B
:101B10000292FFF7E5FC029A9BE70146D2E54746B1
:101B2000DCE708F1FF3818F8013F002B3FF487ADE0
:101B3000AA682968501CA8608B54D5E901329A42E2
:101B4000F1D32846FFF7CCFCEDE7002B9DD1002E0A
:101B50003BD0B14599D2029323464C469946AA6898
:101B60002B68501C4FF03001A8609954D5E9013220
:101B70009A4206F1FF3605D22EB3B442EFD1029B52
:101B80004C4682E72846FFF7ABFCF5E7A9684A1CFC
:101B9000AA602A682D205054D5E901219142C8F14C
:101BA0000008FFF46EAF28460293FFF799FC029BF2
:101BB00067E72846FFF794FCAB68E1E62846FFF7A5
:101BC0008FFCAB68D2E6029B4C4600265DE71E46C2
:101BD00046E7039BB7E600BFCDCCCCCC683900000C
:101BE000FFF72ABC2DE9F041858ACE1C043D2E4426
:101BF0000746B6FBF5F6FFF73BFC78B3F6B24FF4B9
:101C00008073013E0446C5800760838027D08046EC
:101C1000002509E06379AE4203F101036371C8F85E
:101C20000000076080461AD03846FFF721FC0135D6
:101C30000028EFD16679721E14D02346013082420B
:101C40001B68FBD11F684EB1002523682146013572
:101C500038461C46FFF72EFCAE42F6D10024204643
:101C6000BDE8F0812768EFE704300121FFF7B4BB3E
:101C7000F8B5012104460430FFF7BAFBC0B200B149
:101C8000F8BD6679721E12D02346013082421B686D
:101C9000FBD11F68002EF3D00025236821460135B3
:101CA00038461C46FFF706FCAE42F6D1F8BD276861
:101CB000F2E700BF2DE9F8430446181DE688B0FBA3
:101CC000F6F30F46904606FB130013B1013B246860
:101CD000FCD1351A454528BF4546B8F1000F15D04F
:101CE0004FF000090430A8EB050820442A4607EB12
:101CF000090101F04FFD4645A944246835464FF0DF
:101D0000000028BF4546B8F1000FEBD1BDE8F883CD
:101D10002DE9F843C688043304460F46B3FBF6F0BA
:101D2000904606FB103110B101382468FCD1751AB9
:101D3000454528BF4546B8F1000F15D04FF00009C2
:101D400004312144A8EB05082A4607EB090001F0FD
:101D500021FD4645A944246835464FF0000128BFBF
:101D60004546B8F1000FEBD1BDE8F88330B587B038
:101D7000057844688DF8045002948568084A094B38
:101D80008DF80C50D0E9034053F821308DF8140041
:101D9000049452F8211001A8984707B030BD00BF45
:101DA000A0080020AC0800202DE9F04306461F4C97
:101DB00016F8047B1E4844F8273015460C460FC819
:101DC000DFF870E0DFF870C04EF8275085B0002DC6
:101DD0006D4685E80F00237894F8019094F802800E
:101DE00094F803E08DF8003029463B46257B67795F
:101DF0008DF8019018BF6246304694F804C0A6687A
:101E0000647B8DF8028008BF00228DF803E08DF816
:101E100005C08DF8067002968DF80C508DF80D40B7
:101E200000F080FB05B0BDE8F08300BFA0080020F3
:101E300078390000AC0800206D1D000030B585B079
:101E40000478094A094B45688DF80040047AC06857
:101E5000039053F8213001958DF8084052F8211075
:101E60006846984705B030BDB8080020BC0800207F
:101E700030B585B0047845688DF80040D0E902405F
:101E8000064A074B039053F8213001958DF808401E
:101E900052F821106846984705B030BDB8080020B8
:101EA000BC080020F0B51A4B06781A4D0C6991F861
:101EB0001DE045F826400746174803F806E040F8BD
:101EC00026200C4694460FCC89B06D460FC594E889
:101ED0000F0085E80F000496BEF1000F0BD0BCF197
:101EE000000F0E4A694607F1040008BF002200F007
:101EF000DFFF09B0F0BDBCF1000F094A694607F1E8
:101F00000C0008BF002200F0A1FD09B0F0BD00BF29
:101F1000A4090020B8080020BC0800203D1E0000D5
:101F2000711E00002DE9F04186B00023A14A019303
:101F30001668012E00F054811E469F4B1A68012A34
:101F400000F05D819D4B1A68012A00F06A819C4B6C
:101F50001A68012A00F077819A4B1A68012A00F06A
:101F60008481994B1A68012A00F09181974B1A6875
:101F7000012A00F09E81964B1A68012A0CD0954BDD
:101F80001B68012B00F0A58116F0FF0F15D1002E64
:101F900030DB06B0BDE8F0818F4AD2F80423170683
:101FA000EDD500221A601A6804926033049A1B6807
:101FB000012B46F0800600F08C81884F002401251B
:101FC000A30003F18043354203F5C0434FEA4505C2
:101FD0000BD0D3F8100557F82420D3F81015C0F310
:101FE0000420C1F3014102B190470134082CE7D12C
:101FF000002ECEDA00224FF0FF33CDE90223774CDA
:10200000012602AF94F950305D1C2CD0DBB223F0D6
:10201000C00006AA4FEAD00C02EB0C0E03F0070238
:102020001EF80C1C06FA02F211421CD02518990960
:1020300095F9303054F82330002B00F098810329B3
:1020400000F098814FEA800C0CF1A04C1EF8145C53
:10205000DCF800E71540CEF3014E40F05C81BEF1A4
:10206000030F00F0DE81002594F95130581C2DD06B
:10207000DBB223F0C00006AA4FEAD00802EB080E3C
:1020800003F007011EF80C2C06FA01FC12EA0C0FF3
:102090001CD02218990992F9303054F82330002BC3
:1020A00000F05B81032900F05B81820002F1A04215
:1020B0001EF8148CD2F800E718EA0C0FCEF3014E8C
:1020C00040F03681BEF1030F00F0A68194F9523042
:1020D000591C2DD0DBB223F0C00006AA4FEAD0086D
:1020E00002EB080E03F007011EF80C2C06FA01FCA7
:1020F00012EA0C0F1CD02218990992F9303054F8CA
:102100002330002B00F03C81032900F03C81820049
:1021100002F1A0421EF8148CD2F800E718EA0C0F66
:10212000CEF3014E40F0E380BEF1030F00F06E816C
:1021300094F953305A1C2DD0DBB223F0C00006AA0C
:102140004FEAD00802EB080E03F007011EF80C2C32
:1021500006FA01FC12EA0C0F1CD02218990992F918
:10216000303054F82330002B00F0ED80032900F0CC
:10217000ED80820002F1A0421EF8148CD2F800E734
:1021800018EA0C0FCEF3014E40F0BC80BEF1030FF5
:1021900000F00081002D3FF4FCAE4FF0A043019A07
:1021A000D3F8103593423FF4F4AE029A01930392B0
:1021B00028E700BF00610040046100400861004062
:1021C0000C61004010610040146100401861004043
:1021D0001C6100407C61004000600040C00800209D
:1021E0009A49D1F8041311F0010170D013601368FB
:1021F0000493049B964B1A68012A7FF4A3AE934A7A
:10220000D2F8042397077FF59DAE00221A601B6861
:102210000493049B8F4B1A68012A46F002067FF450
:1022200096AE8A4AD2F8042355077FF590AE002275
:102230001A601B680493049B874B1A68012A46F0B6
:1022400004067FF489AE814AD2F8042314077FF58F
:1022500083AE00221A601B680493049B7F4B1A68AC
:10226000012A46F008067FF47CAE784AD2F80423AF
:10227000D0067FF576AE00221A601B680493049B9B
:10228000774B1A68012A46F010067FF46FAE6F4A4A
:10229000D2F8042391067FF569AE00221A601B680C
:1022A0000493049B6F4B1A68012A46F020067FF4C2
:1022B00062AE664AD2F8042352067FF55CAE002275
:1022C0001A601B680493049B46F0400653E60E46D2
:1022D00033E6654B00221A601B6805934FF0A0435C
:1022E000059AD3F81035019346F000464CE6BEF14E
:1022F000020F7FF41DAF032963D0002B3FF418AF0A
:10230000984715E7BEF1020F7FF444AF032969D067
:10231000002B54D13EE7BEF1020F7FF4A4AE032997
:1023200000F091800025002B3FF49EAE98479BE67D
:10233000BEF1020F7FF4CAAE032956D0002B3FF442
:10234000C5AE9847C2E603297FF424AF17F80820EA
:1023500042EA0C0207F808200BE703297FF4B6AE27
:1023600017F8082042EA0C0207F808209DE6032926
:102370007FF479AE17F80C50154307F80C5061E65E
:1023800003297FF4D5AE17F8082042EA0C0207F8BB
:102390000820BCE60329BBD14FF4003ED2F800C7A9
:1023A0002CF4403CC2F800C7D2F800C701354CEA13
:1023B0000E0CEDB2C2F800C7002B3FF4EEAE98470A
:1023C000E8E64FF4403ED2F800C72CF4403CC2F897
:1023D00000C7D2F800C701354CEA0E0CEDB2C2F8C6
:1023E00000C78AE74FF4403ED8E74FF4403ED2F8AA
:1023F00000C72CF4403CC2F800C7D2F800C7013532
:102400004CEA0E0CEDB2C2F800C797E703297FF43F
:1024100074AF4FF4003ED6E703298FD14FF4003E4E
:10242000E5E703297FF47FAF4FF40035DCF80027A0
:1024300022F44032CCF80027DCF800272A43CCF8FD
:10244000002701256FE74FF44035EFE700600040BB
:1024500004610040086100400C61004010610040D0
:1024600014610040186100407C610040014B1B6812
:10247000184700BF1C09002038B50C4B984201D00A
:10248000002038BD00200D46FEF78AFF084B1C795E
:1024900024B10020FEF78CFF112038BD0122204618
:1024A0001D601A71FEF784FF204638BD00200040F1
:1024B0001C090020034B984203D1034B00221A60F1
:1024C0001A717047002000401C090020124AD2F8FF
:1024D0001831E3B10021114BC2F81811D2F81811CC
:1024E000DA7F82B0FF2A0191019908D0987F0121FB
:1024F00001FA02F24FF0A04150B1C1F80C250022C0
:102500005A771A72D3E90021054802B01047704784
:10251000C1F80825F3E700BF00300040240900207F
:102520002C0900202DE9F04F0579DFF808824FEAE9
:10253000C50A0AEB0507BF0008EB070B83B09BF841
:102540001C60002E40F0CE809946036801920C4634
:102550000646764900931846FFF78EFF002840F0A4
:10256000C580019A48F80720CBF80490217B94F8A5
:1025700000C0009B01294FF0A0474FF0010101FA74
:102580000CF194BFC7F80C15C7F8081521784FF067
:10259000A04E01F5E0714FF0010C4EF821C06778B4
:1025A000FF2F00F0B08007F5E0790CFA07F14FF04B
:1025B000030CCEF80C154EF829C094F802C0BCF1FB
:1025C000FF0F00F09D800CF5E07E4FF0A0414FF032
:1025D000040941F82E90E64694F802C0317901EBE7
:1025E000C10108EB810181F820C0E178FF2927D0E3
:1025F00094F804904FF0010C0CFA01F14FF0A04C4C
:10260000B9F1000F76D1CCF80815E1784FF0A04C65
:1026100001F5E0714FF003094CF82190317994F8FD
:1026200003C001EBC10108EB810181F81FC03179C2
:1026300094F804C001EBC10108EB810181F81EC0D0
:102640002178C3F80815C3F80C75C3F810E5A16824
:10265000C3F82415617B277B003118BF0121022FAD
:1026600060D0032F49D0012F01D141F00201C3F8FE
:102670005415A179C3F8C015002A47D0402107227C
:10268000C3F80413C3F8002531686379090B4AB213
:10269000002A3FDB02F1604202F561425B01DBB2DE
:1026A00082F800333268120B42F3C40323F0604314
:1026B00023F0030303F1604303F5614302F01F02BB
:1026C000012101FA02F2C3F880211A60554408EB97
:1026D00085080022012388F81D2088F81C3003B0EB
:1026E000BDE8F08F082003B0BDE8F08F112003B0E3
:1026F000BDE8F08FCCF80C1587E741F00601B6E78E
:102700004FF0FF3E6AE74FF0FF3756E70722C3F866
:102710000025DBE7064A01F00F015B010A44DBB24A
:102720001376BFE741F00401A1E700BFCD2400000C
:10273000FCEC00E0240900202DE9F0470579DFF8E2
:102740004CC14FEAC50E0EEB05039B0080460CEB17
:1027500003000E46417F82B0002940F086805CF87D
:102760000330144623B112F0140F04BF0123437742
:102770000EEB05070CEB870796E80F0097F81FA0F4
:1027800007F10C09BAF1FF0F89E80F0009D0BA7FF1
:10279000012303FA0AF3002A6BD04FF0A042C2F8DB
:1027A0000835326822B102F06043B3F1005F52D1C4
:1027B000B36823B103F06043B3F1005F4BD1D8F8A5
:1027C00000307168C3F84425C3F84815D6E90221E2
:1027D000C3F834250022C3F83815C3F81821D3F8FC
:1027E00018210192019A14F0010218BF0122C3F8C6
:1027F000502514F0020218BF0122C3F84025220719
:102800005CBF01221A610EEB05025CF8222062B166
:1028100014F004004FF040021ABFC3F80823002050
:10282000C3F8042302B0BDE8F087D3F81821002ACA
:10283000FBD075440CEB850C9CF81F20FF2A23D09D
:102840009CF81E00012393404FF0A042C8B1002025
:10285000C2F80C35E6E775440CEB850C002310201C
:102860008CF81D3002B0BDE8F087112002B0BDE841
:10287000F0874FF0A042C2F80C353268002A92D19E
:1028800096E7C2F80835CDE70020CBE72409002001
:1028900030B56C4AD2F8043399058BB066D5D2F8BE
:1028A0002431002B62D00023C2F82431D2F8243125
:1028B00003934FF40171644B0398C2F8081393F823
:1028C000291009B9012151605E4902228DF81820B2
:1028D000D1F88024C1F880249869D968099200222F
:1028E000CDE90710C3E90622D3E9001406A8A047E2
:1028F000544AD2F81C31BBB1534B186A596988420B
:1029000069D350480022C0F81C21D0F81C01019066
:10291000019849B198688DF8182008915A6107907C
:10292000D3E9001206A89047464AD2F84431DBB1F9
:102930000021454BC2F84411D2F8440193F8291004
:102940000090009809B1012111609A6962B10022DA
:10295000586AD9689A610122CDE907108DF81820CC
:1029600006A8D3E9001290470BB030BD354AD2F823
:1029700004335B07BCD5D2F80831002BB8D0324BFA
:10298000996900293CD00021C2F80811D2F8081139
:1029900004910499D868596AD2F8182542545A6AA1
:1029A000996901325A625A6A8A42A1D1DA69196870
:1029B000002A2ED0D8685D6A1C699A6107900022AF
:1029C0000120DC60DA615A628DF8180008955B68B6
:1029D00006A898478CE793F8280000F0FF04002829
:1029E0008FD1C2F81C41D2F81C11029102999C6847
:1029F000186A196A205C01311962C2F81C0593E754
:102A0000C2F80811D2F8080105900598D2F81825E7
:102A1000C9E793F8292012B90A4A01205060094AEF
:102A20004FF40170C2F80803586ADA68089000246D
:102A3000012007928DF818005A689C6106A89047FB
:102A400056E700BF00200040480900202DE9F04172
:102A5000DFF8988107792C2606FB078682B096F866
:102A60002A30002B40F08F800D4604465C490068F8
:102A70001646FFF701FD002840F081802B68591CA5
:102A80000CD001224FF0A04102FA03F3C1F808353F
:102A90002B6803F5E073032241F823206B685A1C6E
:102AA00006D003F5E0734FF0A042002142F8231056
:102AB0002368AA69C3F82425297D6B7D22680B430E
:102AC000C2F86C35D5E900122368C3F81425C3F8A1
:102AD0000C152B7D012B5AD02C2303FB07F308EB9D
:102AE000030256602A6948F80320002E34D0226879
:102AF0002B7F3C4D0021C2F81C11D2F81C21009202
:102B00002268009EC2F84411D2F844112268019153
:102B10000199C2F804532168090B4AB25B01002AEB
:102B2000DBB256DB02F1604202F5614282F800330B
:102B30002268120B42F3C40323F0604323F0030323
:102B400003F1604303F5614302F01F02012101FA22
:102B500002F2C3F880211A602C23246803FB078348
:102B6000002204250121C4F8005583F82A10C3E986
:102B7000062283F829205A6102B0BDE8F0811120B5
:102B800002B0BDE8F081082002B0BDE8F081AB687A
:102B9000591C06D003F5E0734FF0A042002142F823
:102BA0002310EB685A1C0DD001224FF0A04102FA0D
:102BB00003F3C1F80835EB6803F5E073032241F82D
:102BC0002320EB682268A968C2F80835C2F81015FE
:102BD00082E7054A01F00F010A441376A8E700BF17
:102BE0009128000080000200FCEC00E04809002071
:102BF000F8B52F4D047902682C2303FB0453002100
:102C00005B68C2F8001583B103682A4AC3F8082339
:102C10000368294E1B0B5AB25209203203F01F03DE
:102C2000012101FA03F346F8223003684FF0FF3226
:102C3000D3F80CC5D3F81475D3F80815D3F810657C
:102C4000C3F81425C3F80C2503689445C3F8082578
:102C5000C3F8102506D00CF5E07C4FF0A04302220B
:102C600043F82C207B1C06D007F5E0774FF0A043FB
:102C7000022243F82720721C06D006F5E0764FF0BA
:102C8000A043022243F826204B1C06D001F5E07138
:102C90004FF0A043022243F821200068FFF70AFC0E
:102CA0002C2303FB0454002384F82A306360F8BD0E
:102CB000480900208402020000E100E0F0B5314E36
:102CC00005792C2303FB056385B05C69002C53D187
:102CD0001C62996083F828405A610268C2F81C415E
:102CE000D2F81C11026802910121029F91600268D2
:102CF000D3F808C0C2F81C41D2F81C110191019907
:102D0000D3F820E0196A5F681CF80EE001311962FF
:102D1000C2F81CE517B1204605B0F0BD1A6A5C691F
:102D20000168944203D819E093F828203ABBD1F8FF
:102D30001C21002AF8D0C1F81C71D1F81C21039283
:102D4000039AD3F820E01A6A1CF80EE001321A62E6
:102D5000C1F81CE51A6AA242E9D30168D1F81C3116
:102D6000002BFBD00123CB6000202C2303FB056547
:102D700000236B6105B0F0BD112005B0F0BD0F2040
:102D8000F3E700BF48090020F0B5474BD3F82421F2
:102D900089B0002A54D00021C3F82411D3F824218B
:102DA000029202228DF81020029AD3F880043F4A42
:102DB000C3F880040790D3F83C05D3688DF8180059
:102DC000C2E9061105931168536804A89847364B69
:102DD000D3F84421BAB10020344AC3F84401D3F8EF
:102DE000444191690194019C69B1D3F83C458DF847
:102DF0001840D368906101240593116853688DF8D9
:102E0000104004A89847284BD3F82021B2B10021E4
:102E1000264AC3F82011D3F8204150690094009C41
:102E200060B1D3F84C0593688DF818008DF8101038
:102E30005161059304A8D2E90013984709B0F0BD89
:102E4000D3F810110029C2D0C3F81021D3F8101103
:102E50001648039103998169D3F83C458C42B6D159
:102E6000C569C768D0E90016E4B295B1D3F800C2CD
:102E700085612CF02005C261C3F800520369C3606C
:102E800001228DF8184005978DF8102004A8B0474E
:102E90009DE7012385618DF8184005978DF8103066
:102EA00004A8B04793E700BF002000407409002049
:102EB0002DE9F04307796B4E4FEAC70808EB07038B
:102EC00006EB830385B093F82030002B40F09E8002
:102ED0000D460446644900689146FFF7CDFA002884
:102EE00040F090802B68591C0CD001224FF0A0417B
:102EF00002FA03F3C1F808352B6803F5E0730322E7
:102F000041F823206B685A1C06D003F5E0734FF09C
:102F1000A042002142F823102368AA69C3F824259F
:102F2000297D6A7D23680A43C3F86C25D5E9003101
:102F30002268C2F80C35C2F814152B7D012B69D01C
:102F400008EB07029200B318C3F804902B69B35042
:102F5000B9F1000F45D021682B7F444D0022C1F804
:102F60001021D1F8101100912168DDF800C0C1F8DE
:102F70002021D1F8201101912168DDF804C0C1F8A9
:102F80002421D1F8241102912168DDF808C0C1F88C
:102F90004421D1F84411226803910399C2F80453E3
:102FA0002168090B4AB25B01002ADBB254DB02F153
:102FB000604202F5614282F800332268120B42F34C
:102FC000C40323F0604323F0030303F1604303F5DC
:102FD000614302F01F02012101FA02F2C3F88021CD
:102FE0001A604744226806EB870600230124082163
:102FF00086F82040C2F80015C6E90633736105B0B3
:10300000BDE8F083112005B0BDE8F083082005B0CD
:10301000BDE8F083AB68591C06D003F5E0734FF0B0
:10302000A042002142F82310EB685A1C0DD0012267
:103030004FF0A04102FA03F3C1F80835EB6803F53D
:10304000E073032241F82320EB682268A968C2F8E4
:103050000835C2F8101573E7054A01F00F010A445C
:103060001376AAE774090020892D000010030200DE
:10307000FCEC00E0F8B506792F4C0268F500AB19BE
:1030800004EB830300215B68C2F8001583B1036879
:103090002A4AC3F808230368294F1B0B5AB2520966
:1030A000203203F01F03012101FA03F347F8223015
:1030B00003684FF0FF32D3F80CE5D3F814C5D3F80A
:1030C0000815D3F81075C3F80C25C3F81425036848
:1030D0009645C3F80825C3F8102506D00EF5E07E06
:1030E0004FF0A043022243F82E20BCF1FF3F06D050
:1030F0000CF5E07C4FF0A043022243F82C207A1C10
:1031000006D007F5E0774FF0A043022243F82720CE
:103110004B1C06D001F5E0714FF0A043022243F8AA
:103120002120354404EB85040068FFF7C3F9002330
:1031300084F820306360F8BD740900201003020099
:1031400000E100E001F06043B3F1005F2CD1F0B585
:103150000679234F4FEAC60C0CEB060407EB8404F8
:1031600083B0636913BBA16062610568C5F8203153
:10317000D5F820E10568CDF804E0DDF804E0C5F8F5
:103180005831D5F858E10568CDF800E0DDF800E0E9
:10319000C5F84415C5F848250268012191606268A8
:1031A0003AB1184603B0F0BD10207047112003B0AB
:1031B000F0BD036800E08AB9D3F82011D3F8582194
:1031C0000029F8D0002A14BF0F2000200CEB0603C2
:1031D00007EB830300225A6103B0F0BD0F20F5E72F
:1031E0007409002038B5124D124B2888124C13492F
:1031F0000004012240F003001A70FDF757FA23780B
:1032000003B938BD28880E49000440F00300FDF7DB
:103210004DFA2D88204600F0D0FA2D0445F0030524
:10322000214682B22846BDE83840FDF7D9BB00BF31
:1032300018020020A009002098090020F0390000A1
:10324000043A00002DE9F04F012089B0FDF71AFE85
:103250004FF400410020FDF7BDF908B1FDF740FE35
:10326000FDF742F9244B254D0FCB6C4684E80F0047
:1032700021460023224A23480095FEF795FD08B118
:10328000FDF72EFE204B21491888DFF89080204D55
:10329000204EDFF88CB0000440F00300FDF706FA82
:1032A000C24645F0010507274FF00009072200211B
:1032B000504600F07AFA002204A9174886F80090D8
:1032C000CDE904B7CDE90687FFF736FA08B110E07B
:1032D00020BF3378002BFBD0FDF720FC0028FBD16A
:1032E000FDF7BEFDC8244FF47A40A847013CFAD14F
:1032F000DCE7FDF7F5FDECE7AC39000003041C1D2D
:10330000E5310000E039000018020020C839000053
:10331000C0390000A0090020E4390000980900200D
:103320002000002030B4904B1B78062B20D08F4B10
:103330001B68062B00F085808D4AD2F8883043F454
:103340007003C2F88830BFF34F8FBFF36F8F4FF019
:103350001023D3F80022002AC0F28681D3F8043269
:10336000002BC0F28181834B834A1A6030BC7047C6
:10337000824B1B681D07DAD1814B1B6803F0F002FA
:10338000302A00F09E8003F0E003402B00F099808B
:103390007B4B1B6803F0F003302B00F0B980784BB7
:1033A0001B6803F0F002302A56D003F0E003402BF4
:1033B00052D0734B1B6803F0F003302B00F0B68043
:1033C0006F4B1B6803F0F002302A66D003F0E00375
:1033D000402B62D06A4B1B6803F0F003302B00F0E7
:1033E000B580674B1B6803F0F003302B79D0644B3A
:1033F0001B6803F0F003502B00F0E480604B1B6867
:1034000003F0F002302A37D003F0E003402B33D032
:103410005B4B1B6803F0F002302A03D003F0E0039B
:10342000402B84D14FF08043D3F80024D20744BF0F
:103430006FF00102C3F800244C4B1B68062B7FF48D
:103440007BAF504B1B68062B7FF476AF4E4A136858
:1034500043F4806313606FE74C4B434A1B68127858
:103460004B49C3F34233062A0B6048D1434B1B68D8
:1034700019077FF45CAF9CE7464A3B4B12681B7808
:10348000454902F04F02062B0A607FF450AF3B4BD8
:103490001B6819077FF44BAFBAE74FF08043002257
:1034A000C3F80C21C3F81021C3F838252E4B1B7824
:1034B000062B7FF43CAF314B1B681B077FF437AF03
:1034C00088E7364B284A1B6812783549C3F3042332
:1034D000062A0B60EAD1294B1B681C077FF427AF33
:1034E00056E7304C204A304912783048304B052599
:1034F000256001250D6000243F2104601960062A23
:103500007FF415AF1D4B1B681C077FF410AF6EE7EF
:10351000154B284A1B7828491160062B7FF407AF0A
:10352000164B1B6818077FF402AF38E723490E4B90
:10353000CA681B7822F08072062BCA607FF4F7AE4F
:103540000E4B1B681A077FF4F2AE39E7064B1C4A94
:103550001B780321062B11607FF4E9AE074B1B6833
:103560001D077FF4E4AE3CE7E00F00F030010010EF
:1035700000ED00E0280000200090D003E40F00F0F0
:10358000E80F00F0340100103C1700404402001026
:103590003C05004058020010E40E004024030010D7
:1035A00040350140105600408856004018560040F3
:1035B0001456004074C007400DF0ADBAF0ED00E0C5
:1035C000A00500404FF08053404AD3F80414C2F8DD
:1035D0002015D3F80814C2F82415D3F80C14C2F837
:1035E0002815D3F81014C2F82C15D3F81414C2F807
:1035F0003015D3F81814C2F83415D3F81C14C2F8D7
:103600004015D3F82014C2F84415D3F82414C2F896
:103610004815D3F82814C2F84C15D3F82C14C2F866
:103620005015D3F83014C2F85415D3F83414C2F836
:103630006015D3F83814C2F86415D3F83C14C2F8F6
:103640006815D3F840142248C2F86C15D3F8441416
:103650000378C2F87015062B7FF469AE1D4B1B680A
:1036600018077FF464AEC9E61B4B0122C3F804259A
:10367000D3F80024002AFBD04FF01023152216495E
:10368000C3F80022D1F80034002BFBD04FF01022F9
:103690001521114BC2F80412D3F80024002AFBD0E4
:1036A00000220D49C3F80425D1F80034002BFBD0CB
:1036B000BFF34F8F09490A4BCA6802F4E062134313
:1036C000CB60BFF34F8F00BFFDE700BF00C00040DD
:1036D000E00F00F0E40F00F000E0014000ED00E03A
:1036E0000400FA0508B5074B044613B10021AFF3F7
:1036F0000080054B1868836A03B19847204600F0A4
:1037000071F800BF00000000103A000070B50D4EC7
:103710000D4CA41BA4100025A54209D10B4E0C4C46
:1037200000F062F8A41BA4100025A54205D170BDCD
:1037300056F8253098470135EEE756F8253098477A
:103740000135F2E7FC010020FC010020FC01002013
:1037500000020020044B054A1B681B6A002B08BFAF
:103760001346D3F8EC0070472C0000209000002096
:1037700082B001B901A942B14BB113780B60127844
:10378000101C18BF012002B070471046FBE76FF015
:103790000100F8E710B5431E0A44914200D110BD64
:1037A00011F8014B03F8014FF7E702440346934237
:1037B00000D1704703F8011BF9E7034613F8012B0A
:1037C000002AFBD1181A0138704749B1FF2A85BF7A
:1037D0008A2303600A704FF0FF3098BF01207047C2
:1037E00008467047FEE700BFF8B500BFF8BC08BC4C
:1037F0009E467047F8B500BFF8BC08BC9E467047AF
:10380000FFFFFFFFFFFFFFFFFFFFFFFFFFFFFFFFC8
:1038100000000000000000000000D60107010000C9
:10382000D503000041040000D10300004261636B36
:10383000656E647320666C757368656400000000D3
:103840006170700062616C6C6F632E6C6F675F6D8E
:10385000656D706F6F6C0000B0380000E0380000DC
:1038600090380000E8380000F0380000F838000018
:1038700000390000083900001039000020253032DE
:1038800078000000202020007C000000256300005C
:103890001B5B313B33316D0025734C6F67732064C4
:1038A000726F70706564202825642925730D0A00E5
:1038B0001B5B306D00000000257300003C25733E4B
:1038C0002025733A200000000D0A000000000000CF
:1038D0001839000020390000283900003039000074
:1038E0001B5B313B33306D001B5B313B33326D0072
:1038F0001B5B313B33336D001B5B313B33346D005D
:103900001B5B313B33356D001B5B313B33366D0048
:103910001B5B313B33376D006572726F72000000C4
:103920007761726E696E6700696E666F00000000F5
:1039300064656275670000001112131446617461BA
:103940006C206572726F720053797374656D2072AA
:1039500065736574000000000000000000000000B6
:103960000338FDD8704700003031323334353637F4
:103970003839414243444546FFFFFFFF0007FF003F
:1039800000000040000000004750494F544500002F
:10399000505253005350494D0000000055415254BD
:1039A000000000005541525445000000FFFFFFFF9A
:1039B00007FF0000000000400000000000000000C1
:1039C0000338FDD870470000535049206578616D79
:1039D000706C6520737461727465642E0000000061
:1039E0000000000000300040000000000100000066
:1039F0005472616E7366657220636F6D706C65746E
:103A000065642E002052656365697665643A00003E
:103A1000300000204300504F534958002E00002032
:103A2000202020202020202028282828282020206E
:103A3000202020202020202020202020202020881E
:103A40001010101010101010101010101010100482
:103A500004040404040404040410101010101010D2
:103A600041414141414101010101010101010101C6
:103A700001010101010101010101101010101010DC
:103A80004242424242420202020202020202020296
:103A900002020202020202020202101010102000B2
:103AA0000000000000000000000000000000000016
:103AB0000000000000000000000000000000000006
:103AC00000000000000000000000000000000000F6
:103AD00000000000000000000000000000000000E6
:103AE00000000000000000000000000000000000D6
:103AF00000000000000000000000000000000000C6
:103B000000000000000000000000000000000000B5
:103B100000000000000000000000000000000000A5
:043B200000000000A1
:103B24008839000000000000903900000000000007
:103B340094390000000000009C39000000000000DF
:103B4400A439000000000000403800000000030316
:083B54004438000000000003EA
:103B5C00840200204C030020540300208C0200201F
:083B6C001C02002018000000FB
:083B7400CCC6FF7F0100000038
:103B7C000000000000200040000000000020004079
:103B8C0000000000203800000000000000000000D1
:103B9C004E6F7264696300000090D0033000002007
:103BAC000000000000000000000000000000000009
:103BBC0000000000000000000000000000000000F9
:103BCC0000000000000000000000000000000000E9
:103BDC0000000000000000000000000000000000D9
:103BEC0000000000000000000000000000000000C9
:103BFC0000000000000000000000000000000000B9
:103C0C004300000000000000000000000000000065
:103C1C000000000000000000000000000000000098
:103C2C004300000000000000000000000000000045
:103C3C000000000000000000000000000000000078
:103C4C004300000000000000000000000000000025
:103C5C000000000000000000000000000000000058
:103C6C004300000000000000000000000000000005
:103C7C000000000000000000000000000000000038
:103C8C0043000000000000000000000000000000E5
:103C9C000000000000000000000000000000000018
:103CAC0043000000000000000000000000000000C5
:103CBC0000000000000000000000000000000000F8
:103CCC0043000000000000000000000000000000A5
:103CDC0000000000000000000000000000000000D8
:103CEC00CB37000071370000000000001E3A0000C6
:103CFC001C3A00001D3A00001D3A00001D3A00005D
:103D0C001D3A00001D3A00001D3A00001D3A00004B
:103D1C001D3A00001D3A0000FFFFFFFFFFFFFFFFF1
:103D2C00FFFFFFFFFFFF0000010041534349490023
:103D3C000000000000000000000000000000000077
:103D4C0000000000000000000000415343494900FE
:103D5C000000000000000000000000000000000057
:103D6C000000000000000000000000002502000020
:043D7C000102000040
:103D80000000000000000000000000000000000033
:0C3D900000000000000000000000000027
:04000003000002B542
:00000001FF
